:100000000C9471140C94A2140C94A2140C94A214C9
:100010000C94A2140C94A2140C94A2140C94A21488
:100020000C94A2140C94A2140C94A2140C94A21478
:100030000C94A2140C94A2140C94A2140C94A21468
:100040000C94A2140C94CDA20C94A2140C94A2149F
:100050000C94A2140C94A2140C94A0B60C9419ED58
:100060000C94A2140C94C26B0C94A2140C94A214C1
:100070000C94A2140C94A2140C94A2140C94A21428
:100080000C94A2140C94A2140C94A2140C94A21418
:100090000C94A2140C94A2140C94A2140C94A21408
:1000A0000C94A2140C94A2140C94A2140C94A214F8
:1000B0000C94A2140C94A2140C94A2140C94A214E8
:1000C0000C94A2140C94A2140C94A2140C94A214D8
:1000D0000C94A2140C94A2140C94A2140C94A214C8
:1000E0000C94A214FAB609B728B737B752B756B767
:1000F00059B75DB760B764B767B76BB775B759EEF7
:100100005EEE63EE6DEE77EEF0EE81EE89EE91EE4F
:100110009BEEA5EEAFEEBEEEC8EEF0EED2EEDCEE5C
:10012000E6EE11EF14EF03EF07EF0DEF4BEF18EFD3
:100130001CEF22EF26EF2AEF30EF34EF38EF4BEFD2
:100140003EEF42EF46EF084AD73B3BCE016E84BC00
:10015000BFFDC12F3D6C74319ABD56833DDA3D0021
:10016000C77F11BED9E4BB4C3E916BAAAABE00006A
:1001700000803F05A84CCDB2D44EB93836A9020C48
:1001800050B9918688083CA6AAAA2ABE0000008021
:100190003F004D383420582059205A2045004361F3
:1001A0006E6E6F7420656E7465722073756264691B
:1001B000723A20006175746F25692E67006572724E
:1001C0006F722077726974696E6720746F20666938
:1001D0006C65004E6F74205344207072696E7469B0
:1001E0006E67005344207072696E74696E67206296
:1001F000797465200044656C6574696F6E20666172
:10020000696C65642C2046696C653A200046696C0F
:10021000652064656C657465643A006F70656E2076
:100220006661696C65642C2046696C653A200057EC
:10023000726974696E6720746F2066696C653A2014
:10024000002E0A006F70656E206661696C65642C13
:100250002046696C653A20002E0A006F70656E209A
:100260006661696C65642C2046696C653A200046BD
:10027000696C652073656C656374656400205369FF
:100280007A653A200046696C65206F70656E65641A
:100290003A20006F70656E206661696C65642C2081
:1002A00046696C653A20004E6F7720667265736808
:1002B0002066696C653A20004E6F7720646F696E26
:1002C000672066696C653A20002220706F730022F7
:1002D00020706172656E743A2200535542524F5538
:1002E00054494E452043414C4C20746172676574FB
:1002F0003A22004B494C4C45442E200074727969D7
:100300006E6720746F2063616C6C207375622D675B
:10031000636F64652066696C657320776974682013
:10032000746F6F206D616E79206C6576656C732ECD
:10033000204D4158206C6576656C2069733A004DFC
:100340003234004D323320257300534420636172F0
:1003500064206F6B006F70656E526F6F7420666102
:10036000696C656400766F6C756D652E696E697475
:10037000206661696C656400534420696E6974206D
:100380006661696C0020204D383531205A005A2DA5
:1003900050726F6265204F666673657420286D6DBC
:1003A000293A0020204D3230302044300020204DAA
:1003B0003230302044002044697361626C6564000F
:1003C00046696C616D656E742073657474696E67DF
:1003D000733A00204C0020430020440020490020B4
:1003E000204D3330312050005049442073657474DF
:1003F000696E67733A0020460020420020204D318C
:10040000343520533120480020460020420020206F
:100410004D3134352053302048004D617465726988
:10042000616C2068656174757020706172616D65C2
:10043000746572733A00205A0020590020204D3212
:100440003036205800486F6D65206F66667365749E
:1004500020286D6D293A00204500205A00205800C0
:1004600020420020540020204D32303520530041DE
:100470006476616E636564207661726961626C6541
:10048000733A20533D4D696E2066656564726174F0
:100490006520286D6D2F73292C20543D4D696E20E9
:1004A00074726176656C206665656472617465203E
:1004B000286D6D2F73292C20423D6D696E696D7515
:1004C0006D207365676D656E742074696D65202895
:1004D0006D73292C20583D6D6178696D756D2058BC
:1004E00059206A65726B20286D6D2F73292C20208E
:1004F0005A3D6D6178696D756D205A206A65726B21
:1005000020286D6D2F73292C2020453D6D61786961
:100510006D756D2045206A65726B20286D6D2F7397
:10052000290020540020520020204D323034205029
:1005300000416363656C65726174696F6E733A2024
:10054000503D7072696E74696E672C20523D726501
:10055000747261637420616E6420543D74726176BC
:10056000656C00204500205A0020590020204D32A3
:1005700030312058004D6178696D756D204163639D
:10058000656C65726174696F6E20286D6D2F7332B2
:10059000293A00204500205A0020590020204D32E1
:1005A00030332058004D6178696D756D2066656542
:1005B00064726174657320286D6D2F73293A002071
:1005C0004500205A0020590020204D393220580083
:1005D00053746570732070657220756E69743A008B
:1005E00048617264636F6465642044656661756C1C
:1005F000742053657474696E6773204C6F61646511
:10060000640020627974657329002073746F7265C9
:10061000642073657474696E67732072657472699F
:10062000657665642028002062797465732900531B
:10063000657474696E67732053746F7265642028E3
:10064000004572726F722077726974696E672074E8
:100650006F20454550524F4D21005072696E7465B0
:10066000722068616C7465642E206B696C6C28293B
:100670002063616C6C656421004B494C4C45442EF1
:1006800020004B494C4C45442E200020746F6F20B5
:100690006C6F6E6720657874727573696F6E207009
:1006A000726576656E7465640020636F6C642065A6
:1006B0007874727573696F6E2070726576656E748A
:1006C0006564003E20636C616D705F746F5F736F73
:1006D0006674776172655F656E6473746F707320A2
:1006E0003E2041646420686F6D655F6F6666736568
:1006F000745B5A5F415849535D3A006F6B00526515
:1007000073656E643A20003A20007A5F6D61783A32
:1007100020007A5F6D696E3A20005A204F6666733A
:100720006574004F666673657473206170706C69E0
:100730006564004572723A20546F6F2066617221C1
:1007400000546F6F206661722066726F6D20726553
:10075000666572656E636520706F696E74005365BF
:100760007474696E672054726176656C20416363AE
:10077000656C65726174696F6E3A200053657474BC
:10078000696E6720526574726163742041636365AA
:100790006C65726174696F6E3A2000536574746998
:1007A0006E67205072696E7420416363656C657278
:1007B0006174696F6E3A200053657474696E6720C6
:1007C0005072696E7420616E642054726176656C3B
:1007D00020416363656C65726174696F6E3A2000D5
:1007E0004D31343520533C696E6465783E206F7519
:1007F00074206F662072616E67652028302D312964
:10080000007A5F6D696E3A2000795F6D696E3A20FB
:1008100000785F6D696E3A2000205A3A0020593AFC
:100820000020436F756E7420583A200020453A002E
:10083000205A3A0020593A00583A004649524D573A
:100840004152455F4E414D453A4D61726C696E2093
:10085000312E312E302D5243362028476974687569
:10086000622920534F555243455F434F44455F55DE
:10087000524C3A68747470733A2F2F6769746875B4
:10088000622E636F6D2F4D61726C696E4669726D79
:10089000776172652F4D61726C696E2050524F54B2
:1008A0004F434F4C5F56455253494F4E3A312E30CD
:1008B000204D414348494E455F545950453A4849B7
:1008C0004320507275736120693320455854525546
:1008D0004445525F434F554E543A31205555494493
:1008E0003A63656465326132662D343161322D348C
:1008F0003734382D396231322D63353563363266FF
:1009000033363766660A0048494320507275736172
:10091000206933204F66662E004849432050727587
:1009200073612069332072656164792E00426564C9
:1009300020646F6E652E003F0020573A00426564C8
:100940002048656174696E672E0048656174696E40
:100950006720646F6E652E003F0020573A0048659F
:100960006174696E672E2E2E0048494320507275BF
:1009700073612069332072656164792E006F6B00AA
:100980004D3131332053004B494C4C45442E20000F
:100990004543484F00494E464F004552524F52532F
:1009A0000044525952554E00434F4D4D554E494308
:1009B0004154494F4E004C4556454C494E47006FF7
:1009C000666600900995099A09A109A809B6094423
:1009D000454255473A0048656174696E672E2E2E70
:1009E0000048494320507275736120693320726555
:1009F0006164792E005374616E6461726420446591
:100A000076696174696F6E3A20004D65616E3A20B7
:100A1000002020207369676D613A2000206D6561B8
:100A20006E3A20002020207A3A2000206F662000B5
:100A300020207A3A2000793A2000783A20002020BD
:100A400020616E676C653A20005374617274696E40
:100A500067207261646975733A2000506F7369741E
:100A6000696F6E696E67207468652070726F626569
:100A70002E2E2E0A003F4E756D626572206F662025
:100A80006C65677320696E206D6F76656D656E7439
:100A9000206E6F7420706C61757369626C652028BC
:100AA000302D3135292E0A00590058003F53616D11
:100AB000706C652073697A65206E6F7420706C614C
:100AC000757369626C652028342D3530292E0A0033
:100AD0004D3438205A2D50726F6265205265706512
:100AE00061746162696C69747920746573740A0059
:100AF0003F566572626F7365204C6576656C206E3B
:100B00006F7420706C61757369626C652028302D7C
:100B100034292E0A002569206D696E2C2025692054
:100B200073656300456E642066696C65206C69734B
:100B30007400426567696E2066696C65206C697334
:100B400074004E6F206D6F76652E0048494320502B
:100B5000727573612069332072656164792E005269
:100B60006573756D696E67207072696E7400576188
:100B7000697420666F7220757365722E2E2E005474
:100B800045535400205A3A200020593A200042652B
:100B90006420583A20003C3C3C207365745F6265D9
:100BA000645F6C6576656C5F6571756174696F6EA5
:100BB0005F6C7371003E3E3E207365745F626564D6
:100BC0005F6C6576656C5F6571756174696F6E5F8A
:100BD0006C7371003E3E3E207365745F6265645FB6
:100BE0006C6576656C5F6571756174696F6E5F6C5D
:100BF000737100636C65616E5F75705F61667465CB
:100C0000725F656E6473746F705F6D6F7665203EA2
:100C100020454E4453544F50535F4F4E4C595F46FE
:100C20004F525F484F4D494E47203E20656E6473DA
:100C3000746F70735F6E6F745F686F6D696E672835
:100C4000290072756E5F7A5F70726F6265003C3C5E
:100C50003C2070726F62655F707400205A3A200009
:100C600020593A200042656420583A20003E205026
:100C7000726F626553746F77202873746F775F7A31
:100C80005F70726F62652077696C6C20646F205AA8
:100C900020526169736529003E2050726F6265447D
:100CA00065706C6F79002C20003E20646F5F626C71
:100CB0006F636B696E675F6D6F76655F746F5F788A
:100CC0007920003E20646F5F626C6F636B696E67B2
:100CD0005F6D6F76655F746F5F7A20005A20526196
:100CE00069736520746F207A5F6265666F72652034
:100CF00000003E2050726F6265416374696F6E3A06
:100D00000070726F62655F7074203E3E3E003C3C36
:100D10003C2067636F64655F473239003E20636F34
:100D200072726563746564205A20696E2047323997
:100D3000003E204146544552206170706C795F72CC
:100D40006F746174696F6E5F78797A203E207A5F84
:100D5000746D7020203D20003E204245464F524594
:100D6000206170706C795F726F746174696F6E5F0F
:100D700078797A203E207265616C5F7A203D200090
:100D80003E204245464F5245206170706C795F723B
:100D90006F746174696F6E5F78797A203E207A5F34
:100DA000746D7020203D2000202B00200A436F72BC
:100DB000726563746564204265642048656967688C
:100DC000742076732E2042656420546F706F6C6FB0
:100DD00067793A200A00202B002028302C30290A7D
:100DE000002020204F2D2D2046524F4E54202D2DD7
:100DF0002B0A002020207C202020202020202020C2
:100E000020207C0A002020207C20202020282D2942
:100E1000202020207C20540A002054207C202020E8
:100E200020202020202020207C20480A002046204E
:100E30007C20282D29204E20282B29207C20470A81
:100E4000002045207C202020202020202020202041
:100E50007C20490A00204C207C20202020282B299F
:100E6000202020207C20520A002020207C202020CE
:100E700020202020202020207C0A002020202B2D34
:100E80002D2D204241434B202D2D2B0A00200A42BC
:100E900065642048656967687420546F706F677275
:100EA000617068793A200A004D65616E206F662096
:100EB00073616D706C656420706F696E74733A2035
:100EC0000020643A200020623A200045716E2063C1
:100ED0006F656666696369656E74733A20613A206E
:100EE000003E2070726F62696E6720636F6D706C78
:100EF000657465007A5F6265666F7265203D2028C3
:100F00006265666F72652920007A5F6265666F723E
:100F100065203D20286265747765656E2920004153
:100F200046544552206D61747269782E7365745F02
:100F3000746F5F6964656E74697479004245464FE9
:100F40005245206D61747269782E7365745F746F99
:100F50005F6964656E74697479004245464F524515
:100F6000206D61747269782E7365745F746F5F6948
:100F700064656E746974790028422961636B002886
:100F80004629726F6E7400285229696768740028B8
:100F90004C29656674003F4E756D626572206F6600
:100FA0002070726F626564202850296F696E7473B7
:100FB00020697320696D706C61757369626C65205E
:100FC0002832206D696E696D756D292E0A00527583
:100FD0006E6E696E6720696E204452592D52554ECF
:100FE000206D6F646500473239204175746F20426F
:100FF0006564204C6576656C696E670A003F28560B
:10100000296572626F7365204C6576656C20697323
:1010100020696D706C61757369626C652028302D74
:1010200034292E000067636F64655F473239203EC4
:101030003E3E0073796E635F706C616E5F706F73BC
:101040006974696F6E00486F6D6520582F59206272
:1010500065666F7265205A00486F6D6520582F597C
:10106000206265666F7265205A0073746F775F7ACD
:101070005F70726F62650029003C3C3C20736574B0
:101080005F617869735F69735F61745F686F6D65D5
:101090002800003E20686F6D655F6F66667365743B
:1010A0005B617869735D3D3D003E207A70726F62CE
:1010B000655F7A6F66667365743D3D0029203E3E2C
:1010C0003E007365745F617869735F69735F617413
:1010D0005F686F6D6528005761726E696E673A20B0
:1010E000486F6D696E672042756D7020446976693E
:1010F000736F72203C2031006465706C6F795F7A89
:101100005F70726F62650029003C3C3C20686F6D27
:10111000656178697328003E20534552564F5F4CF5
:101120004556454C494E47203E202873746F775FE3
:101130007A5F70726F6265282929003E204146540B
:101140004552207365745F617869735F69735F618D
:10115000745F686F6D65003E2054524947474552A1
:1011600020454E4453544F50003E20656E61626CE2
:10117000655F656E6473746F70732874727565292A
:10118000003E20656E61626C655F656E6473746FAE
:1011900070732866616C7365290029003E3E3E200D
:1011A000686F6D6561786973280073657475705F29
:1011B000666F725F656E6473746F705F6D6F766576
:1011C000203E20656E61626C655F656E6473746F4E
:1011D0007073287472756529003C3C3C2067636F0E
:1011E00064655F47323800454E4453544F50535F57
:1011F0004F4E4C595F464F525F484F4D494E472026
:10120000656E61626C655F656E6473746F70732880
:1012100066616C736529003E2028686F6D655F61AB
:101220006C6C5F61786973207C7C20686F6D655A97
:1012300029203E2066696E616C003C3C3C205A5F70
:10124000534146455F484F4D494E47005A20707202
:101250006F6265206F75742E20626564005A20707D
:10126000726F6265206F75742E20626564003E2087
:101270005A5F534146455F484F4D494E47203E20F7
:10128000686F6D655F616C6C5F61786973003E20AB
:101290005A5F534146455F484F4D494E47203E20D7
:1012A000686F6D655F616C6C5F61786973003E208B
:1012B0005A5F534146455F484F4D494E47203E3E99
:1012C0003E003E20686F6D6559003E20686F6D6579
:1012D000580067636F64655F473238203E3E3E00CA
:1012E000536C6565702E2E2E0020403A002042403F
:1012F0003A00202F0020423A00202F0020543A00CC
:1013000020706F736974696F6E206F7574206F66DB
:101310002072616E67652E003F50726F626520001B
:10132000627573793A2070617573656420666F72B7
:1013300020696E70757400627573793A20706175FA
:1013400073656420666F72207573657200627573D1
:10135000793A2070726F63657373696E6700220A51
:1013600000556E6B6E6F776E20636F6D6D616E648E
:101370003A20220020496E76616C69642065787499
:1013800072756465722000256920686F757273201C
:101390002569206D696E7574657300446F6E6520F4
:1013A0007072696E74696E672066696C65004B497E
:1013B0004C4C45442E200053544F505045442E2051
:1013C000005072696E7465722073746F707065641A
:1013D0002064756520746F206572726F72732E20A1
:1013E00046697820746865206572726F7220616E3C
:1013F0006420757365204D39393920746F2072650A
:1014000073746172742E202854656D7065726174F6
:101410007572652069732072657365742E2053653B
:1014200074206974206166746572207265737461DA
:101430007274696E6729004E6F204C696E65204E8C
:10144000756D626572207769746820636865636B87
:1014500073756D2C204C617374204C696E653A2055
:10146000004E6F20436865636B73756D20776974F8
:1014700068206C696E65206E756D6265722C204CFB
:10148000617374204C696E653A2000636865636B14
:1014900073756D206D69736D617463682C204C6188
:1014A0007374204C696E653A20004C696E65204E5D
:1014B000756D626572206973206E6F74204C617364
:1014C00074204C696E65204E756D6265722B312CEF
:1014D000204C617374204C696E653A20004D3131A7
:1014E0003000446F6E6520736176696E67206669AF
:1014F0006C652E004D3239002020506C616E6E6597
:101500007242756666657242797465733A2000208E
:1015100046726565204D656D6F72793A20004A7597
:101520006C202036203230313600436F6D70696C8C
:1015300065643A2000284E617468616E2050616CC9
:10154000656C6C612C20484943544F5020505255D3
:101550005341206933204D656E64656C2900207C01
:1015600020417574686F723A2000323031362D3068
:10157000342D32342031323A303000204C617374D3
:1015800020557064617465643A200020312E312E3C
:10159000302D524336004D61726C696E0020536FDE
:1015A00066747761726520526573657400205761B7
:1015B000746368646F6720526573657400204272BB
:1015C0006F776E206F7574205265736574002045C7
:1015D000787465726E616C20526573657400506F2B
:1015E0007765725570007374617274002200656EC5
:1015F0007175657565696E6720220029002C2000D1
:101600002C20003A202800FFFFFF0000A04000002F
:10161000A040000000400000484300008743000055
:101620003443000000000000000000000000000043
:1016300048430000874300003443000000000000DE
:101640000000000000006563686F3A004572726F29
:10165000723A0020746F6F206C6F6E67206578742B
:10166000727573696F6E2070726576656E746564ED
:101670000020636F6C6420657874727573696F6E97
:101680002070726576656E746564007C3C3E5E2BEE
:101690003D3F2F5B5D3B2C2A225C004D38342058A7
:1016A0002059205A204500456E6473746F70732072
:1016B000256320256320256320256300205A3A00F6
:1016C00020593A0020583A00656E6473746F707345
:1016D000206869743A200024F4D43050C38E20C2AC
:1016E000A24017828B7011127A910D816CD90AA8D1
:1016F00061E108C7586607615143061E4B5D05C18D
:1017000045A7041A411104093D980371393103407A
:1017100036DB0265339102D4305402802E1D026301
:101720002CEE01752AC501B028A001102781018F78
:101730002564012B244B01E0223401AC211F018DD3
:10174000200D01801FFC00841EED00971DDF00B8F6
:101750001CD200E61BC600201BBC00641AB200B2FB
:1017600019A8000A19A0006A189900D11791004021
:10177000178B00B516840031167E00B31579003A38
:10178000157300C7146F0058146A00EE13660088C2
:1017900013630025135E00C7125B006C125700151F
:1017A000125400C111510070114F0021114B00D68D
:1017B0001049008D1047004610440002104200C03E
:1017C0000F4000800F3E00420F3C00060F3B00CB55
:1017D0000E3800930E37005C0E3500270E3400F3F0
:1017E0000D3200C10D3100900D3000600D2E003221
:1017F0000D2D00050D2C00D90C2B00AE0C290085F9
:101800000C29005C0C2700350C27000E0C2600E884
:101810000B2400C40B2400A00B23007D0B23005AD3
:101820000B2100390B2100180B2000F80A1F00D9EA
:101830000A1E00BB0A1E009D0A1D00800A1D0063CF
:101840000A1C00470A1B002C0A1B00110A1A00F789
:10185000091A00DD091900C4091900AB0919009221
:101860000917007B091800630917004C0916003698
:10187000091600200916000A091500F5081500E0F0
:10188000081400CC081400B8081400A40814009030
:101890000813007D0812006B081300580812004658
:1018A0000812003408110023081100120811000169
:1018B000081100F0071000E0071000D0071000C06A
:1018C000071000B0070F00A107100091070E00835A
:1018D000070F0074070F0065070E0057070E004939
:1018E000070E003B070D002E070E0020070D00130A
:1018F000070D0006070D00F9060C00ED060D00E0CF
:10190000060C00D4060C00C8060C00BC060C00B087
:10191000060C00A4060B0099060C008D060B008235
:10192000060B0077060B006C060B0061060A0057D9
:10193000060B004C060A0042060A0038060A002E72
:10194000060A0024060A001A060A00100609000703
:10195000060A00FD050900F4050900EB050900E28F
:10196000050900D9050900D0050900C7050900BE11
:10197000050900B5050800AD050800A50509009C8E
:10198000050800940508008C050800840508007C03
:10199000050800740508006C050700650508005D72
:1019A000050700560508004E0507004705070040DB
:1019B00005080038050700310507002A0507002340
:1019C0000507001C050600160507000F050700089F
:1019D00005060002050700FB040600F5040700EEFB
:1019E000040600E8040600E2040700DB040600D554
:1019F000040600CF040600C9040600C3040600BDA7
:101A0000040600B7040600B1040500AC040600A6F5
:101A1000040600A00405009B040600950405009040
:101A20000406008A04050085040500800406007A87
:101A300004050075040500700405006B04050066CC
:101A4000040500610405005C04050057040500520C
:101A50000405004D04050048040500430405003E4C
:101A60000404003A04050035040500300404002C89
:101A700004050027040400230405001E0404001AC2
:101A800004040016040500110404000D04040009F8
:101A90000405000404040000040400FC030400F82E
:101AA000030400F4030400F0030400EC030400E862
:101AB000030400E4030400E0030400DC030400D892
:101AC000030400D4030400D0030400CC030400C8C2
:101AD000030300C503030024F404D9201BC40C5CD9
:101AE0000E9804C4095F0265077101F405F900FB53
:101AF00004B30048048700C103690058035500037C
:101B0000034500BE023A008402310053022A002934
:101B100002250004022000E4011C00C8011900AFE6
:101B20000117009801140084011300710110006175
:101B300001100051010E0043010D0036010B002B76
:101B4000010B0020010B00150109000C0109000325
:101B5000010800FB000800F3000800EB000700E4A8
:101B6000000600DE000600D8000600D2000600CC09
:101B7000000500C7000500C2000500BD000400B953
:101B8000000400B5000400B1000400AD000400A989
:101B9000000400A5000300A20003009F0004009BB6
:101BA00000030098000300950002009300030090DA
:101BB0000003008D0002008B0003008800020086F5
:101BC00000020084000300810002007F0002007D0B
:101BD0000002007B0002007900020077000100761D
:101BE0000002007400020072000100710002006F28
:101BF0000002006D0001006C0002006A0001006933
:101C00000002006700010066000100650001006439
:101C10000002006200010061000100600001005F3D
:101C20000002005D0001005C0001005B0001005A41
:101C30000001005900010058000100570001005642
:101C40000001005500010054000100530000005342
:101C50000001005200010051000100500001004F3E
:101C60000001004E0000004E0001004D0001004C3C
:101C70000001004B0000004B0001004A0001004938
:101C80000001004800000048000100470001004634
:101C9000000000460001004500000045000100442E
:101CA0000001004300000043000100420000004228
:101CB0000001004100000041000100400001003F20
:101CC0000000003F0001003E0000003E0001003D1A
:101CD0000000003D0001003C0000003C0000003C12
:101CE0000001003B0000003B0001003A0000003A08
:101CF0000001003900000039000100380000003800
:101D000000000038000100370000003700010036F5
:101D100000000036000000360001003500000035EC
:101D200000000035000100340000003400000034E1
:101D300000010033000000330000003300010032D6
:101D400000000032000000320001003100000031CC
:101D500000000031000100300000003000000030C1
:101D60000001002F0000002F0000002F0000002FB6
:101D70000001002E0000002E0000002E0001002DAA
:101D80000000002D0000002D0000002D0001002C9F
:101D90000000002C0000002C0000002C0001002B93
:101DA0000000002B0000002B0000002B0001002A87
:101DB0000000002A0000002A0000002A000100297B
:101DC000000000290000002900000029000000296F
:101DD0000001002800000028000000280000002862
:101DE0000000002800010027000000270000002755
:101DF0000000002700000027000100260000002648
:101E0000000000260000002600000026000100253A
:101E1000000000250000002500000025000000252E
:101E20000000002500010024000000240000002420
:101E30000000002400000024000100230000002313
:101E40000000002300000023000000230000002306
:101E500000000023000100220000002200000022F8
:101E600000000022000000220000002200010021EA
:101E700000000021000000210000002100000021DE
:101E800000000021000000210001002000000020CF
:101E900000000020000000200000002000000020C2
:101EA00000000020000000200001001F0000001FB3
:101EB0000000001F0000001F0000001F0000001FA6
:101EC0000000001F0001001E0000001E0000001E98
:101ED0000000001E0000004D494E54454D50207436
:101EE0007269676765726564004572723A204D4990
:101EF0004E54454D5020424544004D415854454DA7
:101F00005020747269676765726564004572723A41
:101F1000204D415854454D50204245440054686579
:101F2000726D616C2052756E61776179005448451D
:101F3000524D414C2052554E415741590048656120
:101F400074696E67206661696C65640048656174D8
:101F5000696E67206661696C6564004D494E544541
:101F60004D502074726967676572656400457272CE
:101F70003A204D494E54454D5000626564002C2076
:101F800073797374656D2073746F7070656421204C
:101F90004865617465725F49443A20004D41585468
:101FA000454D5020747269676765726564004572BB
:101FB000723A204D415854454D500023646566697E
:101FC0006E65202044454641554C545F4B642000CB
:101FD00023646566696E65202044454641554C542E
:101FE0005F4B69200023646566696E652020444567
:101FF0004641554C545F4B70200050494420417578
:10200000746F74756E652066696E697368656421A6
:102010002050757420746865206C617374204B7057
:102020002C204B6920616E64204B6420636F6E73BB
:1020300074616E74732066726F6D2062656C6F7769
:1020400020696E746F20436F6E6669677572617484
:10205000696F6E2E6800504944204175746F747525
:102060006E65206661696C6564212074696D656FB9
:10207000757400504944204175746F74756E652005
:102080006661696C6564212054656D706572617468
:1020900075726520746F6F206869676800204B64F3
:1020A0003A2000204B693A2000204B703A20002053
:1020B000436C617373696320504944200020547558
:1020C0003A2000204B753A2000206D61783A2000BC
:1020D000206D696E3A200020643A20002062696118
:1020E000733A200070012C0190012701B0012201F8
:1020F000C0011D01F00118011002130130020E0190
:102100006002090190020401C002FF000003FA000E
:102110004003F5008003F000D003EB002004E6004C
:102120007004E100E004DC004005D700C005D200E7
:102130004006CD00D006C8008007C3003008BE00AE
:10214000F008B900C009B400B00AAF00B00BAA0093
:10215000D00CA500000EA000500F9B00C0109600F0
:102160005012910000148C00C0158700B017820037
:10217000B0197D00D01B7800001E730040206E0057
:1021800090226900F024640040275F0090295A00E3
:10219000E02B5500102E500020304B00103246002E
:1021A000E033410090353C00103737007038320082
:1021B000A0392D00B03A2800A03B2300603C1E004F
:1021C000103D1900903D1400103E0F00703E0A00B3
:1021D000C03E0500003F0000436172642072656DDF
:1021E0006F766564004361726420696E7365727412
:1021F0006564004D33303320553120452569205327
:102200002569004D343238002D2D2D2D2D2D007CCB
:102210004D61726C696E7C002D2D2D2D2D2D0020B1
:10222000312E312E302D5243360020003F002D2D0F
:102230003A2D2D002D2D2D005344005A0059002019
:10224000005800012000012000466C6F7700466CAA
:102250006F770046616E2073706565640046616E3D
:102260002073706565640042656400426564004ED9
:102270006F7A7A6C65004E6F7A7A6C650053706580
:102280006564005370656564004D61696E004D6F53
:1022900076652058004D6F76652059004D6F766544
:1022A000205A0045787472756465720045787472BE
:1022B00075646572004D6F7665205A004D6F7665C6
:1022C0002059004D6F76652058004D6F766520616E
:1022D000786973004D6F766520302E316D6D004D3D
:1022E0006F766520316D6D004D6F76652031306DF4
:1022F0006D0050726570617265005072656865614D
:102300007420504C412042656400507265686561DC
:102310007420504C410050726570617265005072BB
:1023200065686561742041425320426564005072C3
:102330006568656174204142530050726570617236
:1023400065004D38300053776974636820706F778B
:102350006572206F6E004D38310053776974636881
:1023600020706F776572206F666600436F6F6C64D4
:102370006F776E005072656865617420414253004A
:102380005072656865617420504C41004D383400CE
:1023900044697361626C65207374657070657273F3
:1023A000004D6F76652061786973004732380A47BF
:1023B000323900473239004C6576656C20626564BD
:1023C0000053657420686F6D65206F666673657471
:1023D0007300473238004175746F20686F6D650077
:1023E0004D61696E0053746F7265206D656D6F721B
:1023F000790042656400426564004E6F7A7A6C65CC
:10240000004E6F7A7A6C650046616E207370656568
:10241000640046616E2073706565640054656D707C
:10242000657261747572650053746F7265206D65B5
:102430006D6F72790042656400426564004E6F7A88
:102440007A6C65004E6F7A7A6C650046616E207317
:10245000706565640046616E207370656564005444
:10246000656D70657261747572650050726568653E
:1024700061742041425320636F6E6600507265683C
:1024800065617420504C4120636F6E660050494472
:10249000204175746F74756E650050494420417514
:1024A000746F74756E65005049442D430050494463
:1024B0002D43005049442D44005049442D440050C0
:1024C00049442D49005049442D49005049442D505C
:1024D000005049442D5000200220466163740020C2
:1024E000022046616374002002204D6178002002C2
:1024F000204D6178002002204D696E002002204DA1
:10250000696E004175746F74656D70004F6666008A
:102510004F6E200046616E207370656564004661F1
:102520006E207370656564004265640042656400F6
:102530004E6F7A7A6C65004E6F7A7A6C6500436FE5
:102540006E74726F6C004573746570732F6D6D00DF
:102550004573746570732F6D6D005A737465707375
:102560002F6D6D005A73746570732F6D6D00597304
:10257000746570732F6D6D005973746570732F6D72
:102580006D005873746570732F6D6D0058737465AA
:1025900070732F6D6D00412D74726176656C004112
:1025A0002D74726176656C00412D72657472616381
:1025B0007400412D7265747261637400416D6178BD
:1025C000204500416D6178204500416D6178205AB9
:1025D00000416D6178205A00416D617820590041B9
:1025E0006D6178205900416D6178205800416D611E
:1025F000782058005654726176206D696E005654EA
:10260000726176206D696E00566D696E00566D6957
:102610006E00566D6178204500566D61782045004A
:10262000566D6178205A00566D6178205A00566DBB
:102630006178205900566D6178205900566D617897
:10264000205800566D617820580056652D6A6572D5
:102650006B0056652D6A65726B00567A2D6A65723D
:102660006B00567A2D6A65726B005678792D6A6513
:10267000726B005678792D6A65726B0041636365F1
:102680006C00416363656C005A204F666673657425
:10269000005A204F666673657400436F6E74726FE4
:1026A0006C0046696C2E204469612E0046696C2ED0
:1026B000204469612E004520696E206D6D33004F06
:1026C0006666004F6E2000436F6E74726F6C00522E
:1026D0006573746F7265206661696C73616665000D
:1026E0004C6F6164206D656D6F72790053746F7209
:1026F00065206D656D6F72790046696C616D656E00
:1027000074004D6F74696F6E0054656D7065726111
:1027100074757265004D61696E00052E2E004D6165
:10272000696E004E6F2053442063617264005072E2
:10273000696E742066726F6D2053440053746F701D
:10274000207072696E7400526573756D65207072C9
:10275000696E74005061757365207072696E7400E3
:10276000436F6E74726F6C005072657061726500B9
:1027700054756E6500496E666F2073637265656E91
:102780000000000A0B02090C0D0E080703040100EB
:102790000000000000000000000000000000000039
:1027A00000000000000000000000000000121110F6
:1027B0000000000000000000000000000000000019
:1027C0000000000000000001021020200808102076
:1027D00040102040800201020108040201010204AD
:1027E000081020408080402010080402018004026C
:1027F00001804020100804020108040201010204C3
:1028000008102040800102040810204080050505C2
:1028100005070508080808020202020A0A08080457
:102820000404040101010101010101030303030385
:10283000030303040707070C0C0C0C0C0C0C0C0214
:1028400002020206060606060606060B0B0B0B0B1B
:102850000B0B0B000020002300260029002C002F6A
:1028600000320000010000030106010901000022FE
:1028700000250028002B002E00310034000201004A
:1028800000050108010B0100002100240027002A97
:10289000002D003000330001010000040107010A8F
:1028A000014E414E494E495459494E46CDCCCC3D3E
:1028B0000AD7233C17B7D13877CC2B329595E6242D
:1028C0001FB14F0A000020410000C84200401C46D2
:1028D00020BCBE4CCA1B0E5AAEC59D74B76B1EC33E
:1028E000BF6B11241FBECFEFD1E2DEBFCDBF00E032
:1028F0000CBF15E0A0E0B2E0EEE6F8EF01E00BBFA0
:1029000002C007900D92A636B107D9F724E1A6E6DA
:10291000B5E001C01D92A33CB207E1F718E2C0EE9A
:10292000D8E200E006C022970109FE010BBF0E9419
:102930009BF5CC3DD10780E00807A9F70E94E3EFA3
:102940000C9426FC0C940000CF93DF93EC0160E024
:102950008E810E9485EF81E090E00E94C9ED61E0E8
:102960008E810E9485EF81E090E00E94C9ED60E0D9
:102970008E810E9485EF84E690E0DF91CF910C94E8
:10298000C9EDEF92FF920F931F93CF93DF938C01CA
:10299000C0E0D0E0E62EF12CB7010C2E02C07595F8
:1029A00067950A94E2F76170F801EC0FFD1F8781CB
:1029B0000E9485EF2196C430D10571F7C801DF91DF
:1029C000CF911F910F91FF90EF90BECFEF92FF92AA
:1029D0000F931F93CF93DF938C01C0E0D0E0E62EDE
:1029E000F12CB7010C2E02C0759567950A94E2F799
:1029F0006170F801EC0FFD1F87810E9485EF219621
:102A0000C830D10571F7C801DF91CF911F910F91A7
:102A1000FF90EF9099CF1F93CF93DF93EC01162F88
:102A2000642F8C810E9485EF8D818F3F19F060E0CB
:102A30000E9485EF8F85612F84FF05C0CE01DF9155
:102A4000CF911F91C3CF70E084E0759567958A950B
:102A5000E1F7CE0196DF612FCE01DF91CF911F917B
:102A600090CF40E0D8CF61E0FCDF80ED97E00C94A0
:102A7000C9ED443008F043E0FC012389421710F00F
:102A80004FEF420FFC01E40FF11D2489260F20684F
:102A9000622FE7CFFC016089262F2460208B6C60B9
:102AA000E0CF0F931F93CF93DF93EC01423018F0E8
:102AB0008F8588608F874B8B1C8A80E48D8B6E8B13
:102AC00070E0605C7F4F6F8B222329F0413019F456
:102AD0008F8584608F8761E08C810E944CEF8D81AF
:102AE0008F3F19F061E00E944CEF61E08E810E94FF
:102AF0004CEF00E010E08F8584FF03C088E090E099
:102B000002C084E090E00817190754F4FE01E00FBA
:102B1000F11F61E087810E944CEF0F5F1F4FEBCFE9
:102B200080E593EC0E94C9ED60E08C810E9485EF06
:102B300060E08E810E9485EF8D818F3F19F060E00B
:102B40000E9485EF6F8564FD19C063E0CE0119DF37
:102B500084E991E10E94C9ED63E0CE0112DF84E9CE
:102B600091E10E94C9ED63E0CE010BDF86E990E0C0
:102B70000E94C9ED62E0CE0104DF13C06062CE01A5
:102B800070DF84E991E10E94C9ED6F856062CE013A
:102B900068DF86E990E00E94C9ED6F856062CE0132
:102BA00060DF6F856062CE015CDF84E0888BCE01E0
:102BB00071DFCE0158DF82E0898B66E0CE01DF91C4
:102BC000CF911F910F914DCFCF92EF920F93FC01B8
:102BD0001382128286E693E09183808364838FEF71
:102BE0008583468327830087E186C2861386148601
:102BF00015861686178620E041E060E1CF010F912F
:102C0000EF90CF904ECFCF92DF92EF92FF920F9343
:102C10001F93CF93DF931F921F92CDB7DEB78C0126
:102C2000677088E0689FB00111246064C80149831F
:102C30005A8317DF4981C42E5A81D52EE12CF12CFD
:102C4000D6016D916D01D801ED91FC910190F0815B
:102C5000E02DC8011995BFEFEB1AFB0AE8E0EE166C
:102C6000F10471F70F900F90DF91CF911F910F91A9
:102C7000FF90EF90DF90CF90089541E0CCDE81E0AF
:102C800090E00895452B31F0389A409A0E9492EDD9
:102C9000409808950C9492EDFC01148217821382DF
:102CA000128284EF94E091838083089524EF34E0CE
:102CB000FC01318320832781222319F004960C9490
:102CC00096970895CF92DF92EF92FF920F931F9302
:102CD000CF93DF93EC018F96DFDFCE01805B9F4FB8
:102CE000DBDF7E012FE6E20EF11C87016E013BE582
:102CF000C31A3EEFD30AC801CFDF015E1F4F0C1588
:102D00001D05C9F7FE01EA55FE4F89E18183148252
:102D10003596178ACE0187539E4FBEDFFE01E658D7
:102D2000FD4F10821182128213823496108211821A
:102D3000128213821A821B8218821982F801108271
:102D4000FE01E851FE4F108286E391E0F7019C01FD
:102D5000119221503040E1F7FE01EA57FD4F81E02A
:102D600080831EA61DA60E9463EDCE57DD4F6857D7
:102D70007C4E8F4F9F4F688379838A839B83DF913B
:102D8000CF911F910F91FF90EF90DF90CF9008951A
:102D9000FC0120E03EE2DB014C91403241F0283062
:102DA00011F430833196DB014C91408331962F5FD3
:102DB0006F5F7F4F2B3079F7108208952F923F92EB
:102DC0004F925F926F927F928F929F92AF92BF923B
:102DD000CF92DF92EF92FF920F931F93CF93DF93E7
:102DE000CDB7DEB7C657D1090FB6F894DEBF0FBE18
:102DF000CDBF8C016B015A0129012DB73EB7E39677
:102E00003FAF2EAFE397AD961FAEAD9734E0A30E64
:102E1000B11C4296E5969FAF8EAFE597180199E7F2
:102E2000291A9DEF390AF801E757FD4FAF96FFAF1A
:102E3000EEAFAF973801F5E06F0E711C7E012FE504
:102E4000E20EF11C80E490E08C0F9D1F0496E79643
:102E50009FAF8EAFE797E5964EAD5FADE597BE01AC
:102E60006F5F7F4FC5010E94FC9518160CF041C1A1
:102E70002C85322F3871303109F0BCC0F1018081CE
:102E800091810197029708F4B5C02DB73EB7E1963E
:102E90003FAF2EAFE197BE016F5F7F4FC70178DF75
:102EA00081E0F601908191119DC0E1E0F0E0D70151
:102EB0000D900020E9F7EE19FF09EA0FFB1F31968C
:102EC0002DB73EB72E1B3F0B0FB6F8943EBF0FBE7B
:102ED0002DBFEDB7FEB731964F01882319F06AE692
:102EE00073E001C0B601C4010E9427F9B701C40113
:102EF0000E9408F96AE673E0C4010E9408F9CE0155
:102F0000805C9F4FC9DE21E0A701B501E7968EAD39
:102F10009FADE7970E948D99811137C0F1018081A3
:102F20009181892B91F5E6E4F6E18491882341F0C3
:102F30009091C00095FFFCCF8093C6003196F5CFED
:102F4000ECE6F3E08191882339F09091C00095FF81
:102F5000FCCF8093C600F6CF8091C00085FFFCCFE8
:102F60008AE08093C600F7018191882339F090911F
:102F7000C00095FFFCCF8093C600F6CF8091C000C3
:102F800085FFFCCF8AE08093C6008BE1FE01EC5BFD
:102F9000FF4FDE01959601900D928A95E1F72496F8
:102FA0008EAD9FAD24979CA38BA384EF94E09AA34E
:102FB00089A320E030E0AE014F5D5F4FB401C8014E
:102FC000FDDECE01819672DECE01805C9F4F6EDE0B
:102FD000E1962EAD3FADE1970FB6F8943EBF0FBE20
:102FE0002DBF39CF80E001900020E9F73197EC192F
:102FF000FD095DCF8981882309F47BC0853E09F4F2
:103000002ACF8E3209F427CFF80182898E3209F453
:1030100022CF23FD20CF81E0303109F080E0F8019C
:103020008483811108C08985873409F014CF8A858B
:103030008E3709F410CFF1018081918181309105A3
:1030400069F08230910581F1892B09F004CFBE012E
:103050006F5F7F4FC3019CDEF60110C0AF96EEADEF
:10306000FFADAF9780819181019691838083F3CEEC
:103070009091C00095FFFCCF8093C6008191811193
:10308000F7CFF3018191882339F09091C00095FF2B
:10309000FCCF8093C600F6CF8091C00085FFFCCFA7
:1030A0008AE08093C600D7CEBE016F5F7F4FC30119
:1030B0006FDE4114510439F0B301C2010E94F5F8EA
:1030C000892B79F416C0AD96FFADAD972F2F30E068
:1030D000AF96EEADFFADAF9780819181281739078C
:1030E00041F0AD96FFADAD97FF5FAD96FFAFAD97E9
:1030F000B2CEE3962EAD3FADE3970FB6F8943EBF48
:103100000FBE2DBFCA58DF4F0FB6F894DEBF0FBEFB
:10311000CDBFDF91CF911F910F91FF90EF90DF9086
:10312000CF90BF90AF909F908F907F906F905F9067
:103130004F903F902F900895EF92FF920F931F931F
:10314000CF93DF93CDB7DEB76F970FB6F894DEBF9E
:103150000FBECDBF8C01FC01E957FD4F11821082DB
:103160007C0183E3E80EF11C40E050E0BA01C701A6
:103170000E94B3968BE1F701DE01159601900D9246
:103180008A95E1F7F80181A992A99C838B8384EF4A
:1031900094E09A83898320E030E0AE014F5F5F4F77
:1031A0006DEC73E0C8010ADECE0101967FDD6F96FB
:1031B0000FB6F894DEBF0FBECDBFDF91CF911F9148
:1031C0000F91FF90EF900895EF92FF920F931F934E
:1031D000CF93DF93EC011B828EA9882321F0CE01CF
:1031E000C3960E9496977E018AE5E81A8EEFF80A48
:1031F00045E360E0C7010E94139281111FC0E6E41D
:10320000F6E18491882341F09091C00095FFFCCFB6
:103210008093C6003196F5CFE8E7F3E084918823E8
:1032200041F09091C00095FFFCCF8093C60031968D
:10323000F5CF8091C00085FFFCCF76C08E0105558B
:103240001E4F41E0B701C8010E94979F811126C01F
:1032500040E0B701C8010E94979F81111FC0ECE4B4
:10326000F6E18491882341F09091C00095FFFCCF56
:103270008093C6003196F5CFE5E6F3E0849188238C
:1032800041F09091C00095FFFCCF8093C60031962D
:10329000F5CF8091C00085FFFCCF46C0B801CE01BC
:1032A000C3960E94A09481111FC0ECE4F6E18491C2
:1032B000882341F09091C00095FFFCCF8093C60019
:1032C0003196F5CFE5E5F3E08491882341F09091C4
:1032D000C00095FFFCCF8093C6003196F5CF80915A
:1032E000C00085FFFCCF20C081E08B83E6E4F6E1DF
:1032F0008491882341F09091C00095FFFCCF80938A
:10330000C6003196F5CFEAE4F3E08491882341F0DA
:103310009091C00095FFFCCF8093C6003196F5CF09
:103320008091C00085FFFCCF8AE08093C600CE016B
:10333000805B9F4F2BE1FE01F396DC011496019018
:103340000D922A95E1F729A93AA9FC01338322833A
:103350003297AF96D183C083DF91CF911F910F91A8
:10336000FF90EF900895FC01128213820895CF928E
:10337000DF92EF92FF920F931F93CF93DF93CDB71E
:10338000DEB7CDB6DEB6FB0101900020E9F7E61B03
:10339000F70B34968DB79EB78E1B9F0B0FB6F89424
:1033A0009EBF0FBE8DBF0DB71EB70F5F1F4F7F9320
:1033B0006F9383E493E09F938F931F930F930E94E7
:1033C0004BF9780194E0E90EF11C0F900F900F90EB
:1033D0000F900F900F90F7018081882349F0992773
:1033E00087FD90950E9496F8F70181937F01F3CFB6
:1033F00060E0C8010E944B2E8FE393E00E94F02E04
:103400000FB6F894DEBE0FBECDBEDF91CF911F91F7
:103410000F91FF90EF90DF90CF900895FC012381F2
:10342000222311F021E022830895FC012281211141
:1034300012820895AF92BF92CF92DF92EF92FF92E5
:103440000F931F93CF93DF931F92CDB7DEB78C01FD
:103450008FE2FB0181935F01D12C21E07801FBE534
:10346000EF1AFEEFFF0A8FE1C82EF7018081D81610
:10347000C8F4B501C801CD9C800D911D11248D5853
:103480009F4F29830E944794C50129815C010196C1
:10349000F5013081332321F02D3810F42F5FF6CF62
:1034A000D394E3CF27FD11C0B501C80183539E4FCC
:1034B0000F90DF91CF911F910F91FF90EF90DF90D0
:1034C000CF90BF90AF900C944794F50110820F906D
:1034D000DF91CF911F910F91FF90EF90DF90CF90F0
:1034E000BF90AF9008953F924F925F926F927F92FC
:1034F0008F929F92AF92BF92CF92DF92EF92FF9204
:103500000F931F93CF93DF93CDB7DEB7AC970FB672
:10351000F894DEBF0FBECDBF7C015B01FC0183814F
:10352000882309F4EDC0C70183539E4F0E949697EC
:10353000F7011282CE0101966C01AEDB27019EE4F9
:10354000490E511CC7018F96F20191838083F501CA
:1035500080818F3209F077C06FE270E0C5010E9470
:1035600013F98C010F5F1F4F9AE0392E01151105D9
:1035700009F46FC06FE270E0C8010E9413F94C01BA
:10358000009709F467C00817190708F063C03C01E9
:10359000601A710AA301B801CE0180960E943CF91D
:1035A000E0E2F0E0EC0FFD1FE60DF71D1082FE01DA
:1035B000B0968191882339F09091C00095FFFCCF9F
:1035C0008093C600F6CF8091C00085FFFCCF30927B
:1035D000C600F201608171816115710519F06C5F9F
:1035E0007F4F02C060E070E021E0AE01405E5F4FBF
:1035F000CE0105960E948D9981111EC0EBE1F2E08B
:103600008491882341F09091C00095FFFCCF809376
:10361000C6003196F5CFFE01B0968191882339F02E
:103620009091C00095FFFCCF8093C600F6CF8091AB
:10363000C00085FFFCCF5FC0F201D182C08284014F
:103640000F5F1F4F93CFC701805B9F4FF2019183A4
:1036500080838501F20180819181009711F00496A9
:1036600002C080E090E0B8010E94639A811103C01B
:10367000E5EFF1E02EC0EDE0F2E08491882341F027
:103680009091C00095FFFCCF8093C6003196F5CF96
:10369000F8018191882339F09091C00095FFFCCF0B
:1036A0008093C600F6CF8091C00085FFFCCF8AE0F2
:1036B0008093C600F701E258FD4F108211821282FA
:1036C00013821CC09091C00095FFFCCF8093C60070
:1036D000319684918111F6CFF8018191882339F0D8
:1036E0009091C00095FFFCCF8093C600F6CF8091EB
:1036F000C00085FFFCCF8EE28093C600C601D6DAFB
:10370000AC960FB6F894DEBF0FBECDBFDF91CF9160
:103710001F910F91FF90EF90DF90CF90BF90AF90EF
:103720009F908F907F906F905F904F903F90089503
:10373000CF93DF93EC018B81811103C0E3EDF1E0C6
:1037400039C0E3EEF1E08491882341F09091C0000C
:1037500095FFFCCF8093C6003196F5CFFE01E2586D
:10376000FD4F40815181628173812AE030E08AE619
:103770009AE00E942A6D8091C00085FFFCCF8FE205
:103780008093C600C658DD4F488159816A817B818C
:103790002AE030E08AE69AE00E942A6D8091C0001B
:1037A00085FFFCCF0EC09091C00095FFFCCF8093A9
:1037B000C600319684918111F6CF8091C00085FFBB
:1037C000FCCF8AE08093C600DF91CF910895AF923D
:1037D000BF92CF92DF92EF92FF920F931F93CF93FE
:1037E000DF935C01EB01FB0101900020E9F78F0101
:1037F00001501109061B170B6C01F3E3CF1AFEEF02
:10380000DF0AF60110826EE470E0CE010E9413F927
:103810007C01009729F4F8013197EC0FFD1F0DC0D2
:1038200060E270E00E9413F9EC0121966AE270E018
:10383000C7010E9413F9FC0131978DE081838AE072
:1038400082831382BE01C50187539E4F0E94409C14
:10385000F6018081882309F1ECE4F6E18491882364
:1038600041F09091C00095FFFCCF8093C600319647
:10387000F5CFEDEBF1E08491882341F09091C00009
:1038800095FFFCCF8093C6003196F5CF8091C000A4
:1038900085FFFCCF8AE08093C600DF91CF911F9116
:1038A0000F91FF90EF90DF90CF90BF90AF90089571
:1038B0006F927F928F929F92AF92BF92CF92DF9240
:1038C000EF92FF920F931F93CF93DF93CDB7DEB7A5
:1038D000AA970FB6F894DEBF0FBECDBF8C018A57F2
:1038E0009D4F7C01611114C0FC018081882309F483
:1038F00098C00E9463EDF801EE57FD4F80809180E3
:10390000A280B380681979098A099B0997FF89C049
:10391000F7011082F8018381811107C0C80154DCCE
:10392000F8018381882309F47CC0F80186A58F9370
:1039300085A58F9384EB91E09F938F937E01F1E2B5
:10394000EF0EF11CFF92EF920E944BF90F900F9037
:103950000F900F900F900F90B12CF7010190002065
:10396000E9F73197EE19FF09BE1684F46701CB0C15
:10397000D11CB7FCDA94F6018081992787FD9095D8
:103980000E9496F8F6018083B394E7CF4801F3E3F1
:103990008F0E911C40E050E0BA01C4010E94B39622
:1039A000612CCE0101965C0140E050E0B501C401FC
:1039B0000E94FC9518164CF5712CF5010190002021
:1039C000E9F73197EA19FB097E1674F46501C70C13
:1039D000D11C77FCDA94F601808190E00E9496F881
:1039E000F60180837394E9CF8A858E37E9F245E04A
:1039F00050E0B701C5010E942EF9892BA9F6B70145
:103A0000C801B5DC66246394CFCF611004C08FEF8A
:103A10009FEFF80104C0F80185A596A5019696A729
:103A200085A7AA960FB6F894DEBF0FBECDBFDF9173
:103A3000CF911F910F91FF90EF90DF90CF90BF90AB
:103A4000AF909F908F907F906F9008950F931F93EA
:103A5000CF93DF93EC018C0103531E4FC8010E94EA
:103A60004C97C8010E94969719821882DF91CF91D6
:103A70001F910F910895CF92DF92EF92FF920F93D3
:103A80001F93CF93DF93CDB7DEB76F970FB6F89440
:103A9000DEBF0FBECDBF8C016A017C018EE4E80E53
:103AA000F11CC801805B9F4FF70191838083E75C25
:103AB000FD4F22E030E031832083329671836083B2
:103AC00040E050E0BA0104960E94B396F70180816D
:103AD00091812BE1FC013496DE01159601900D9247
:103AE0002A95E1F7FC01828193819C838B8384EF8B
:103AF00094E09A8389839601AE014F5F5F4F6DEC2E
:103B000073E0C8015BD9CE010196D0D86F960FB68D
:103B1000F894DEBF0FBECDBFDF91CF911F910F9103
:103B2000FF90EF90DF90CF9008952F923F924F92A9
:103B30005F926F927F928F929F92AF92BF92CF923D
:103B4000DF92EF92FF920F931F93CF93DF93CDB746
:103B5000DEB7AC970FB6F894DEBF0FBECDBF8C01B9
:103B60006B01342EFC018381882309F4CDC2E0531C
:103B7000FE4F8081882309F4FAC0211103C0E6E4D6
:103B8000F6E1CDC07801F8E1EF1AFEEFFF0AF70188
:103B90008081811103C0E6E4F6E135C0ECE4F6E192
:103BA0008491882341F09091C00095FFFCCF8093D1
:103BB000C6003196F5CFECEFF2E08491882341F016
:103BC0009091C00095FFFCCF8093C6003196F5CF51
:103BD0004AE050E061E070E08AE69AE00E94FE6C04
:103BE0008091C00085FFFCCF8AE08093C60083EF00
:103BF00092E00E94265588C29091C00095FFFCCFAC
:103C00008093C600319684918111F6CFEAEDF2E0FF
:103C10008491882341F09091C00095FFFCCF809360
:103C2000C6003196F5CFF6018191882339F0909145
:103C3000C00095FFFCCF8093C600F6CFEFECF2E01A
:103C40008491882341F09091C00095FFFCCF809330
:103C5000C6003196F5CFF70180813DE8B32EB8015B
:103C6000B89E600D711D112463517E4FC801E2DBC7
:103C7000F7018081F801B89EE00DF11D1124E35198
:103C8000FE4F8191882339F09091C00095FFFCCFC1
:103C90008093C600F6CFE9ECF2E08491882341F0EE
:103CA0009091C00095FFFCCF8093C6003196F5CF70
:103CB0005801F2E8AF1AFDEFBF0AF50140815181CA
:103CC000628173812AE030E08AE69AE00E942A6DE0
:103CD0008091C00085FFFCCF8AE08093C600F70189
:103CE0002081F80184E0289FE00DF11D1124AF012F
:103CF00047515E4FF50180819181A281B381FA0124
:103D000080839183A283B3832F5FF701208329C02F
:103D10009091C00095FFFCCF8093C60031968491AE
:103D20008111F6CFE8EBF2E08491882341F0909185
:103D3000C00095FFFCCF8093C6003196F5CFF60109
:103D40008191882339F09091C00095FFFCCF80933A
:103D5000C600F6CF8091C00085FFFCCF8AE080933B
:103D6000C600C80183539E4F0E94969730C0F80149
:103D7000E851FE4F1082E6E4F6E18491882341F099
:103D80009091C00095FFFCCF8093C6003196F5CF8F
:103D9000E7EAF2E08491882341F09091C00095FF1A
:103DA000FCCF8093C6003196F5CFF6018191882330
:103DB00039F09091C00095FFFCCF8093C600F6CFFC
:103DC0008091C00085FFFCCF8AE08093C600F80197
:103DD0001282CE0101965C010E944C1628019EE4DD
:103DE000490E511CC8018F96F20191838083F60120
:103DF00080818F3209F077C07601FFEFEF1AFF0A5A
:103E00002AE0222EE114F10409F473C06FE270E09D
:103E1000C7010E9413F94C01009709F46BC0E81622
:103E2000F90608F067C03C016E187F08A301B701CE
:103E3000CE0180960E943CF9E0E2F0E0EC0FFD1F1D
:103E4000E60DF71D1082FE01B0968191882339F0AE
:103E50009091C00095FFFCCF8093C600F6CF809173
:103E6000C00085FFFCCF2092C600F2016081718105
:103E70006115710519F06C5F7F4F02C060E070E062
:103E800021E0AE01405E5F4FCE0105960E948D9904
:103E9000811121C0E3E9F2E08491882341F09091FF
:103EA000C00095FFFCCF8093C6003196F5CFFE0190
:103EB000B0968191882339F09091C00095FFFCCF96
:103EC0008093C600F6CF8091C00085FFFCCF8EE2C4
:103ED0008093C60016C1F201B182A0827401FFEF87
:103EE000EF1AFF0A8FCFC801805B9F4FF2019183C9
:103EF00080837601C80183539E4F4C01F20160819B
:103F00007181332009F4A3C06115710519F06C5F4C
:103F10007F4F02C060E070E021E0A701C4010E9471
:103F20008D99811103C0EBE5F2E075C09801265828
:103F30003D4FF40181899289A389B489F901808375
:103F40009183A283B383E5E8F2E08491882341F072
:103F50009091C00095FFFCCF8093C6003196F5CFBD
:103F6000F7018191882339F09091C00095FFFCCF33
:103F70008093C600F6CFEDE7F2E08491882341F00C
:103F80009091C00095FFFCCF8093C6003196F5CF8D
:103F9000F90140815181628173812AE030E08AE633
:103FA0009AE00E942A6D8091C00085FFFCCF8AE0D4
:103FB0008093C600F801E258FD4F108211821282F0
:103FC0001382EFE6F2E08491882341F09091C000E3
:103FD00095FFFCCF8093C6003196F5CF8091C0004D
:103FE00085FFFCCF8AE08093C600A70160E070E007
:103FF000C80141DDF8018289882319F0C801429681
:1040000001C0C70160E07BC09091C00095FFFCCF6C
:104010008093C600319684918111F6CFF70181918A
:10402000882339F09091C00095FFFCCF8093C600A3
:10403000F6CFE8E5F2E08491882309F462C090911C
:10404000C00095FFFCCF8093C6003196F4CF611578
:10405000710519F06C5F7F4F02C060E070E026E5EB
:10406000A701C4010E948D99811125C0E4E4F2E00A
:104070008491882341F09091C00095FFFCCF8093FC
:10408000C6003196F5CFF7018191882339F09091E0
:10409000C00095FFFCCF8093C600F6CFE1E4F2E0CC
:1040A0008491882371F19091C00095FFFCCF80939B
:1040B000C6003196F5CF81E0F8018083EFE2F2E0AF
:1040C0008491882341F09091C00095FFFCCF8093AC
:1040D000C6003196F5CFF6018191882339F0909191
:1040E000C00095FFFCCF8093C600F6CF8091C00042
:1040F00085FFFCCF8AE08093C60060E0C7010E9484
:1041000018BDC5010E945616AC960FB6F894DEBFD6
:104110000FBECDBFDF91CF911F910F91FF90EF9018
:10412000DF90CF90BF90AF909F908F907F906F90D7
:104130005F904F903F902F90089521E0FC012183E4
:1041400020E040E0F2CCCF92DF92EF92FF920F930B
:104150001F93CF93DF93CDB7DEB76F970FB6F89469
:10416000DEBF0FBECDBF8C016C012EE4C20ED11C90
:10417000805B9F4FF60191838083E75CFD4F21E0D8
:1041800030E0318320837801F7E7EF1AFDEFFF0A73
:10419000F7011182108240E050E0BA0104960E94BB
:1041A000B396F601808191812BE1FC013496DE010A
:1041B000159601900D922A95E1F7FC018281938179
:1041C0009C838B8384EF94E09A83898320E030E0A2
:1041D000AE014F5F5F4F6DEC73E0C8010E94DE16C9
:1041E000CE0101960E945616F701808191816F964B
:1041F0000FB6F894DEBF0FBECDBFDF91CF911F91F8
:104200000F91FF90EF90DF90CF900895AF92BF9203
:10421000CF92DF92EF92FF920F931F93CF93DF9392
:10422000CDB7DEB76F970FB6F894DEBF0FBECDBF28
:104230008C015B01CE0101960E944C16F801E95AEF
:10424000FF4F80817801811104C02FE2E20EF11C42
:1042500003C030E5E30EF11C670144E0C40ED11C3D
:1042600021E0A501B601CE0105960E948D9981112C
:104270002DC0E6E4F6E18491882341F09091C000DE
:1042800095FFFCCF8093C6003196F5CFEEE9F1E0C3
:104290008491882341F09091C00095FFFCCF8093DA
:1042A000C6003196F5CFF5018191882339F09091C0
:1042B000C00095FFFCCF8093C600F6CF8091C00070
:1042C00085FFFCCF8AE08093C60030C0F801EB5533
:1042D000FE4F80818A30D0F491E0980F9083F801EE
:1042E0002FE1829FE00DF11D1124CF0181599F4FD5
:1042F0002BE1F601DC01149601900D922A95E1F76D
:10430000F70122813381FC0133832283005B1F4F3D
:104310008BE1FE013596D801149601900D928A9595
:10432000E1F78B819C81F80193838283CE01019612
:104330000E9456166F960FB6F894DEBF0FBECDBF23
:10434000DF91CF911F910F91FF90EF90DF90CF9071
:10435000BF90AF900895CF93DF93FC01EB55FE4FD4
:1043600020812223D1F021502083EC013FE1239FC3
:10437000C00DD11D1124C159DF4F805B9F4F2BE130
:10438000FE013496DC01149601900D922A95E1F716
:104390002A813B81FC0133832283DF91CF910895F1
:1043A000EF92FF920F931F93CF93DF93EC010E9444
:1043B00060A98E0108511E4FF80180819E01235390
:1043C0003E4F79018823A1F1C9010E949697F80117
:1043D000808181508083BE01FDE88F9F600D711D3B
:1043E000112463517E4F21E041E0CE019EDBF801B4
:1043F0008081FE0124E0829FE00DF11D1124E75130
:10440000FE4F4081518162817381FE01E258FD4F70
:104410004083518362837383C7010E94B396CE01A8
:10442000DF91CF911F910F91FF90EF900C940E1A96
:10443000C9010E9496971A8282E991E00E94F02EAB
:104440008091E80F882349F11092E80F0091F2055E
:1044500010E0E801CC0FDD1FCB5FDB4E6881798176
:10446000882777FD8095982F0E94F7F120913E02D2
:1044700030913F0240914002509141020E9458F316
:1044800018165CF419821882C801DF91CF911F9130
:104490000F91FF90EF900C9419AFDF91CF911F9186
:1044A0000F91FF90EF900895AF92BF92DF92EF923D
:1044B000FF920F931F93CF93DF931F92CDB7DEB779
:1044C0008C015B01460F8AE0D82E4A1509F43BC0E7
:1044D0007501F50161915F01F80180819181498346
:1044E0000E946FFBF801808191810E9467FBF701B8
:1044F00090814981891701F1E6E4F6E184918823EE
:1045000041F09091C00095FFFCCF8093C60031969A
:10451000F5CFE1E4F6E08491882341F09091C0006A
:1045200095FFFCCF8093C6003196F5CF8091C000F7
:1045300085FFFCCFD092C600F80180819181019661
:1045400091838083C2CF0F90DF91CF911F910F9104
:10455000FF90EF90DF90BF90AF900895EF92FF92A1
:104560000F931F93CF93DF931F92CDB7DEB78C01CC
:104570007B01460FF8018081918149830E9467FB8E
:10458000F70181937F01F8018081918101969183E8
:10459000808349814E11EECF0F90DF91CF911F9113
:1045A0000F91FF90EF900895CF92DF92EF92FF92DC
:1045B0000F931F93CF93DF93CDB7DEB7A1970FB6BD
:1045C000F894DEBF0FBECDBF1D8A1E8A1F8A188ECB
:1045D00080E390E3A0E3B0E0898B9A8BAB8BBC8B3C
:1045E00084E690E09E8F8D8F44E0BE016F5E7F4F2A
:1045F000CE014D9659DF40E169E270E1CE014D9662
:1046000053DF40E169E370E1CE014D964DDF40E1BB
:1046100069E170E1CE014D9647DF44E061E170E170
:10462000CE014D9641DF44E06DE070E1CE014D9644
:104630003BDF44E069E070E1CE014D9635DF44E0B8
:1046400065E170E1CE014D962FDF44E069EF7FE038
:10465000CE014D9629DF44E069E470E1CE014D962C
:1046600023DF44E065E070E1CE014D961DDF44E0BC
:1046700061E070E1CE014D9617DF44E06DEF7FE021
:10468000CE014D9611DF4CE061E076E0CE014D9613
:104690000BDF83E089A388A31F8E1D8A1E8A1F8AD1
:1046A000188E41E0BE01615E7F4FCE014D96FCDE6B
:1046B00044E0BE016B5E7F4FCE014D96F5DE41E0DA
:1046C000BE016F5D7F4FCE014D96EEDE41E0BE0133
:1046D000605E7F4FCE014D96E7DE10E099A188A184
:1046E000212F30E0989FC001112444E0281739079A
:1046F00044F4BE016B5E7F4FCE014D96D5DE1F5F49
:10470000EDCF63E172E0CE014D96CEDE1D8A1E8AAA
:104710001F8A188E1AE0115041F044E0BE016B5E12
:104720007F4FCE014D96C0DEF6CF42E06CEA74E1D9
:10473000CE014D96B9DE42E06AEA74E1CE014D96B3
:10474000B3DE42E068EA74E1CE014D96ADDE42E0B0
:1047500066EA74E1CE014D96A7DE42E064EA74E1B8
:10476000CE014D96A1DE42E062EA74E1CE014D96A3
:104770009BDEC12C90E8D92E9BE3E92E95E4F92E1F
:10478000111119C044E065E872E0CE014D968CDE4F
:1047900044E061E872E0CE014D9686DE44E06DE7CC
:1047A00072E0CE014D9680DE44E069E772E0CE0112
:1047B0004D967ADE1AC0CD8ADE8AEF8AF88E44E002
:1047C000BE016B5E7F4FCE014D966EDE1D8A1E8A46
:1047D0001F8A188E04E0015041F044E0BE016B5E78
:1047E0007F4FCE014D9660DEF6CF1F5F143041F64D
:1047F00042E06FE072E0CE014D9656DE80E090E838
:10480000ABE3B5E48D879E87AF87B88B89879A879E
:10481000AB87BC878D839E83AF83B88744E0BE019E
:10482000635F7F4FCE014D963FDE44E0BE01675F80
:104830007F4FCE014D9638DE44E0BE016B5F7F4F67
:10484000CE014D9631DE80E290E09C8F8B8F42E06E
:10485000BE01655E7F4FCE014D9626DE80E090E082
:10486000A0E8BFE38D8B9E8BAF8BB88F44E0BE0179
:104870006B5E7F4FCE014D9617DE41E069E176E039
:10488000CE014D9611DE10E011110CC080912D0269
:1048900090912E02A0912F02B09130028D8B9E8BB1
:1048A000AF8BB88F44E0BE016B5E7F4FCE014D965B
:1048B000FBDD1F5F143041F786E592E3A3E3B0E030
:1048C00089839A83AB83BC8384E690E09A8F898F37
:1048D00044E0BE016F5F7F4FCE014996E5DDE6E41F
:1048E000F6E18491882341F09091C00095FFFCCFC0
:1048F0008093C6003196F5CF6D8D7E8D8FE296E068
:104900000E94212DE7E2F6E08491882341F0909106
:10491000C00095FFFCCF8093C6003196F5CF809103
:10492000C00085FFFCCF8AE08093C600A1960FB639
:10493000F894DEBF0FBECDBFDF91CF911F910F91D5
:10494000FF90EF90DF90CF900895AF92BF92DF92EB
:10495000EF92FF920F931F93CF93DF93CDB7DEB704
:10496000E0970FB6F894DEBF0FBECDBF80E1ECEC50
:10497000F2E0DE01919601900D928A95E1F780E1D7
:10498000ECEDF2E0DE01519601900D928A95E1F78F
:1049900080E1ECEEF2E0DE01119601900D928A9535
:1049A000E1F77E0181E2E80EF11C09E210E1BE01AF
:1049B0006F5E7F4F49E350E19E012F5F3F4FE9E17A
:1049C000AE2EE0E1BE2ED12CF70181919191A19103
:1049D000B1917F01F80181939193A193B1938F01DC
:1049E000FB0181919191A191B191BF01FA01819354
:1049F0009193A193B193AF01F90181919191A1910B
:104A0000B1919F01F50181939193A193B1935F01BE
:104A1000D394F4E0DF12D8CF0E945D7F80E090E86D
:104A2000ABE3B5E48093111090931210A093131090
:104A3000B093141080930D1090930E10A0930F104C
:104A4000B09310108093091090930A10A0930B104C
:104A5000B0930C101092151010921610109217109F
:104A60001092181080E29EE4A0E0B0E0809349101C
:104A700090934A10A0934B10B0934C101092F90FE2
:104A80001092FA0F1092FB0F1092FC0F80E090E052
:104A9000A0E0BFE38093051090930610A093071049
:104AA000B09308108DEC9CECACECBEE3809301104D
:104AB00090930210A0930310B093041080E090E054
:104AC000A0EAB0E48093FD0F9093FE0FA093FF0F38
:104AD000B09300101092090610920A0610920B066D
:104AE00010920C0610920506109206061092070608
:104AF0001092080610920106109202061092030608
:104B00001092040680E090E0A0E4BFEB80931302D3
:104B100090931402A0931502B093160288EC90E0D3
:104B20009093AD148093AC1486E490E09093AB1412
:104B30008093AA141092A9141092A81485EF90E003
:104B40009093A7148093A6148AE590E09093A514FF
:104B50008093A4141092A3141092A2148AE999E9E4
:104B6000A1EBB1E48093850290938602A093870223
:104B7000B093880261E77DE38AE89FE30E9412B860
:104B800060938102709382028093830290938402E7
:104B900060E070E084EE92E40E941EB860937D02B3
:104BA00070937E0280937F029093800280E090E079
:104BB000A8ECB2E48093790290937A02A0937B02EE
:104BC000B0937C0284E190E09093100280930F02F6
:104BD0000E94E9AB1092190680E090E0A0EEBFE3DE
:104BE00080932D0290932E02A0932F02B093300257
:104BF0000E940966E6E4F6E18491882341F09091F1
:104C0000C00095FFFCCF8093C6003196F5CFE0EE53
:104C1000F5E08491882341F09091C00095FFFCCF8E
:104C20008093C6003196F5CF8091C00085FFFCCF00
:104C30008AE08093C600E0960FB6F894DEBF0FBE00
:104C4000CDBFDF91CF911F910F91FF90EF90DF903B
:104C5000BF90AF900895CF93C82F882369F14091FA
:104C6000291050912A1060912B1070912C1088EC13
:104C700095E0F9D640912D1050912E1060912F1093
:104C80007091301085EC95E0EED640913110509146
:104C90003210609133107091341082EC95E0E3D6BD
:104CA0004091351050913610609137107091381046
:104CB0008FEB95E0D8D62FC0E6E4F6E18491882307
:104CC00041F09091C00095FFFCCF8093C6003196D3
:104CD000F5CFE0EDF5E08491882341F09091C0009C
:104CE00095FFFCCF8093C6003196F5CF8091C00030
:104CF00085FFFCCF8AE08093C600E6E4F6E184916C
:104D0000882309F4ACCF9091C00095FFFCCF80932D
:104D1000C6003196F4CF8091C00085FFFCCF8AE0B9
:104D20008093C600CC2369F14091391050913A101C
:104D300060913B1070913C108CE995E094D64091C5
:104D40003D1050913E1060913F107091401089E9E4
:104D500095E089D6409141105091421060914310E6
:104D60007091441086E995E07ED6409145105091AF
:104D70004610609147107091481083E995E073D612
:104D80002FC0E6E4F6E18491882341F09091C000C1
:104D900095FFFCCF8093C6003196F5CFE5EAF5E0AC
:104DA0008491882341F09091C00095FFFCCF8093BF
:104DB000C6003196F5CF8091C00085FFFCCF8AE018
:104DC0008093C600E6E4F6E18491882309F4ACCF31
:104DD0009091C00095FFFCCF8093C6003196F4CF30
:104DE0008091C00085FFFCCF8AE08093C600CC2371
:104DF00069F14091191050911A1060911B10709137
:104E00001C108CE695E041D640911D1050911E106B
:104E100060911F107091201089E695E036D6409180
:104E2000211050912210609123107091241086E679
:104E300095E02BD6409125105091261060912710B7
:104E40007091281083E695E020D62FC0E6E4F6E1C5
:104E50008491882341F09091C00095FFFCCF80930E
:104E6000C6003196F5CFE5E7F5E08491882341F05F
:104E70009091C00095FFFCCF8093C6003196F5CF8E
:104E80008091C00085FFFCCF8AE08093C600E6E4F5
:104E9000F6E18491882309F4ACCF9091C00095FF8E
:104EA000FCCF8093C6003196F4CF8091C00085FF7F
:104EB000FCCF8AE08093C600CC2311F14091111001
:104EC00050911210609113107091141088E295E0C7
:104ED000CAD540910D1050910E1060910F10709135
:104EE000101085E295E0BFD54091091050910A104D
:104EF00060910B1070910C1082E295E0B4D52FC038
:104F0000E6E4F6E18491882341F09091C00095FF9A
:104F1000FCCF8093C6003196F5CFE1E3F5E08491B4
:104F2000882341F09091C00095FFFCCF8093C6008C
:104F30003196F5CF8091C00085FFFCCF8AE0809349
:104F4000C600E6E4F6E18491882309F4B7CF909196
:104F5000C00095FFFCCF8093C6003196F4CF8091BE
:104F6000C00085FFFCCF8AE08093C600CC2309F403
:104F700043C0409115105091161060911710709118
:104F8000181086E694E06FD54091F90F5091FA0F12
:104F90006091FB0F7091FC0F83E694E064D5409123
:104FA000491050914A1060914B1070914C1080E65E
:104FB00094E06BD540910510509106106091071058
:104FC000709108108DE594E04ED5409101105091FC
:104FD000021060910310709104108AE594E043D5AB
:104FE0004091FD0F5091FE0F6091FF0F70910010E6
:104FF00087E594E038D52FC0E6E4F6E18491882374
:1050000041F09091C00095FFFCCF8093C60031968F
:10501000F5CFEFE6F4E08491882341F09091C00051
:1050200095FFFCCF8093C6003196F5CF8091C000EC
:1050300085FFFCCF8AE08093C600E6E4F6E1849128
:10504000882309F496CF9091C00095FFFCCF809300
:10505000C6003196F4CF8091C00085FFFCCF8AE076
:105060008093C600CC2311F14091010650910206B5
:1050700060910306709104068CE394E0F4D44091AF
:10508000050650910606609107067091080689E3AF
:1050900094E0E9D44091090650910A0660910B060C
:1050A00070910C0686E394E0DED42FC0E6E4F6E1CE
:1050B0008491882341F09091C00095FFFCCF8093AC
:1050C000C6003196F5CFE5E4F4E08491882341F001
:1050D0009091C00095FFFCCF8093C6003196F5CF2C
:1050E0008091C00085FFFCCF8AE08093C600E6E493
:1050F000F6E18491882309F4B7CF9091C00095FF21
:10510000FCCF8093C6003196F4CF8091C00085FF1C
:10511000FCCF8AE08093C600CC23B1F06091AC1440
:105120007091AD148EE094E08CD46091AA147091CB
:10513000AB148BE094E085D46091A8147091A9140D
:1051400088E094E07ED42FC0E6E4F6E184918823E1
:1051500041F09091C00095FFFCCF8093C60031963E
:10516000F5CFEAE1F4E08491882341F09091C0000A
:1051700095FFFCCF8093C6003196F5CF8091C0009B
:1051800085FFFCCF8AE08093C600E6E4F6E18491D7
:10519000882309F4C3CF9091C00095FFFCCF809382
:1051A000C6003196F4CF8091C00085FFFCCF8AE025
:1051B0008093C600CC23B1F06091A6147091A7141F
:1051C0008CEF93E03ED46091A4147091A51489EF04
:1051D00093E037D46091A2147091A31486EF93E00A
:1051E00030D40DC0E6E4F6E18491882329F3909150
:1051F000C00095FFFCCF8093C6003196F5CF80911B
:10520000C00085FFFCCF8AE08093C600CC2309F460
:105210003CC0409185025091860260918702709156
:1052200088028FED93E01FD4609181027091820219
:1052300080918302909184020E9418B8AB01BC0156
:105240008CED93E010D460917D0270917E0280918C
:105250007F02909180020E9424B8AB01BC0189EDCD
:1052600093E001D44091790250917A0260917B02DF
:1052700070917C0286ED93E0F6D360910F027091FD
:10528000100283ED93E0DDD32FC0E6E4F6E18491D4
:10529000882341F09091C00095FFFCCF8093C60019
:1052A0003196F5CFE8EEF3E08491882341F09091B8
:1052B000C00095FFFCCF8093C6003196F5CF80915A
:1052C000C00085FFFCCF8AE08093C600E6E4F6E1EB
:1052D0008491882309F49DCF9091C00095FFFCCF65
:1052E0008093C6003196F4CF8091C00085FFFCCF3B
:1052F0008AE08093C600CC2361F040912D0250914A
:105300002E0260912F02709130028DEA93E0ABD3B0
:1053100045C0E6E4F6E18491882341F09091C00015
:1053200095FFFCCF8093C6003196F5CFE0ECF3E01B
:105330008491882341F09091C00095FFFCCF809329
:10534000C6003196F5CF80911906811103C0E6EBB6
:10535000F3E00CC08091C00085FFFCCF0EC090919F
:10536000C00095FFFCCF8093C600319684918111D7
:10537000F6CF8091C00085FFFCCF8AE08093C60005
:10538000E6E4F6E18491882309F4B7CF9091C00058
:1053900095FFFCCF8093C6003196F4CF8091C0007A
:1053A00085FFFCCF8AE08093C600809119068111A9
:1053B00023C0C1110DC0E6E4F6E107C09091C00022
:1053C00095FFFCCF8093C600319684918111F6CF72
:1053D000E3EAF3E007C09091C00095FFFCCF809313
:1053E000C600319684918111F6CF8091C00085FF6F
:1053F000FCCF8AE08093C600CC2361F04091130279
:1054000050911402609115027091160285E893E0A4
:105410002AD32EC0E6E4F6E18491882341F09091EE
:10542000C00095FFFCCF8093C6003196F5CFEEE823
:10543000F3E08491882341F09091C00095FFFCCF68
:105440008093C6003196F5CF8091C00085FFFCCFD8
:105450008AE08093C600E6E4F6E18491882371F245
:105460009091C00095FFFCCF8093C6003196F5CF98
:105470008091C00085FFFCCF8AE08093C600CF9169
:105480000895CF92DF92EF92FF920F931F93CF93E5
:10549000DF93CDB7DEB76B970FB6F894DEBF0FBEC4
:1054A000CDBF84E690E0988F8F8B86E592E3A3E3EF
:1054B000B0E08D879E87AF87B88B44E0BE016F5EFA
:1054C0007F4FCE0147964AD843E050E0BE016F5E61
:1054D0007F4FCE010D960E942EF9892B11F035DAFF
:1054E000B4C119861A861B861C8640E169E270E108
:1054F000CE01479633D840E169E370E1CE0147968B
:105500002DD840E169E170E1CE01479627D80E948D
:105510005D7F44E061E170E1CE0147961FD844E031
:105520006DE070E1CE01479619D844E069E070E182
:10553000CE01479613D844E065E170E1CE0147966D
:105540000DD844E069EF7FE0CE01479607D844E0EC
:1055500069E470E1CE01479601D844E065E070E16E
:10556000CE0147960E94AE2244E061E070E1CE0198
:1055700047960E94AE2244E06DEF7FE0CE01479651
:105580000E94AE224CE061E076E0CE0147960E9498
:10559000AE221B8E1A8E198E41E0BE01655E7F4FD2
:1055A000CE0147960E94AE2244E0BE01675F7F4F66
:1055B000CE0147960E94AE2241E0BE01665E7F4F5B
:1055C000CE0147960E94AE2241E0BE01675E7F4F4A
:1055D000CE0147960E94AE2210E09A8D898D212F30
:1055E00030E0989FC001112444E0281739074CF49B
:1055F000BE01675F7F4FCE0147960E94AE221F5FBC
:10560000ECCF63E172E0CE0147960E94AE2219868C
:105610001A861B861C861AE0115049F044E0BE0130
:10562000675F7F4FCE0147960E94AE22F5CF42E0E2
:105630006CEA74E1CE0147960E94AE2242E06AEA2B
:1056400074E1CE0147960E94AE2242E068EA74E11E
:10565000CE0147960E94AE2242E066EA74E1CE0196
:1056600047960E94AE2242E064EA74E1CE0147967A
:105670000E94AE2242E062EA74E1CE0147960E94A7
:10568000AE2244E0BE01675F7F4FCE0147960E9485
:10569000AE2211110EC0C984DA84EB84FC8420E0B0
:1056A00030E84BE355E4C701B6010E9455F1811182
:1056B00002C004E01EC0C0928502D0928602E09231
:1056C0008702F092880244E061E872E0CE014796DA
:1056D0000E94AE2244E06DE772E0CE0147960E9440
:1056E000AE2244E069E772E0CE0147960E94AE2206
:1056F0000BC0015049F044E0BE01675F7F4FCE010F
:1057000047960E94AE22F5CF1F5F143009F0B9CF43
:1057100042E06FE072E0CE0147960E94AE2244E084
:10572000BE01675F7F4FCE0147960E94AE2220E008
:1057300030E84BE355E469857A858B859C850E942A
:1057400055F144E0BE0181110BC0675F7F4FCE0170
:1057500047960E94AE2244E0BE01675F7F4F0AC0B9
:105760006B5F7F4FCE0147960E94AE2244E0BE01A0
:105770006F5F7F4FCE0147960E94AE2242E0BE018E
:105780006B5E7F4FCE0147960E94AE2244E0BE0181
:10579000675F7F4FCE0147960E94AE2241E069E1EC
:1057A00076E0CE0147960E94AE2210E044E0BE01B2
:1057B000675F7F4FCE0147960E94AE2211110CC049
:1057C00089859A85AB85BC8580932D0290932E02A6
:1057D000A0932F02B09330021F5F143039F70E945C
:1057E00009660E94E9ABE6E4F6E18491882341F082
:1057F0009091C00095FFFCCF8093C6003196F5CF05
:10580000FE013D968191882339F09091C00095FF6B
:10581000FCCF8093C600F6CF6F89788D8AE096E042
:1058200010D1E2E0F6E08491882341F09091C0002D
:1058300095FFFCCF8093C6003196F5CF8091C000D4
:1058400085FFFCCF8AE08093C60080E004DA6B9687
:105850000FB6F894DEBF0FBECDBFDF91CF911F9181
:105860000F91FF90EF90DF90CF900895FC0165912C
:105870007591859194910895CF92DF92EF92FF9266
:105880000F931F93CF93DF93EC01CC0FDD1FCC0F51
:10589000DD1FFE01EF5FF94FDE01A35FB94F2D91D0
:1058A0003D914D915C9160817181828193810E94D3
:1058B0007CF06B017C01CE01865C994ED7DF8E01B6
:1058C0000B501A4FA70196010E947CF0F8016083EB
:1058D000718382839383CE01825D994EC7DFC35E5D
:1058E000DD4FA70196010E947CF0688379838A834B
:1058F0009B83DF91CF911F910F91FF90EF90DF90ED
:10590000CF90089560E088E590E10E946ABDE6E4EA
:10591000F6E18491882341F09091C00095FFFCCF7F
:105920008093C6003196F5CFE6E4F0E184918823B8
:1059300041F09091C00095FFFCCF8093C600319656
:10594000F5CF8091C00085FFFCCF8AE08093C60030
:1059500008950E9463ED6093E6057093E7058093D8
:10596000E8059093E90508958091350290913602FB
:10597000A0913702B09138028093D8079093D9074D
:10598000A093DA07B093DB07809133029091340241
:1059900090931B0680931A0684E690E0909334025D
:1059A00080933302D6DF8091DC0785FF14C0EAEADA
:1059B000F1E18491882341F09091C00095FFFCCFE4
:1059C0008093C6003196F5CF8091C00085FFFCCF53
:1059D0008AE08093C60081E00C94D1A08091DC071E
:1059E00085FF14C0E3EFFBE08491882341F09091A0
:1059F000C00095FFFCCF8093C6003196F5CF809113
:105A0000C00085FFFCCF8AE08093C6000E94D9A029
:105A10008091D8079091D907A091DA07B091DB0760
:105A20008093350290933602A0933702B0933802E8
:105A300080911A0690911B06909334028093330252
:105A400088CFFC012491222341F03091C00035FF22
:105A5000FCCF2093C6000196F4CF4AE050E08AE6DE
:105A60009AE00C94FE6CFC012491222341F03091C9
:105A7000C00035FFFCCF2093C6000196F4CF22E092
:105A800030E08AE69AE00C94D06DFC012491222348
:105A900041F03091C00035FFFCCF2093C600019645
:105AA000F4CF2AE030E08AE69AE00C942A6D8F92D7
:105AB0009F92AF92BF92CF92DF92EF92FF920F939D
:105AC0001F9348015901FC012191CF01222339F094
:105AD0003091C00035FFFCCF2093C600F4CF83E0A7
