:100000000C94A20F0C94D30F0C94D30F0C94D30F19
:100010000C94D30F0C94D30F0C94D30F0C94D30FD8
:100020000C94D30F0C94D30F0C94D30F0C94D30FC8
:100030000C94D30F0C94D30F0C94D30F0C94D30FB8
:100040000C94D30F0C94796C0C94D30F0C94D30FA5
:100050000C94D30F0C94D30F0C9440800C94F9B0F3
:100060000C94D30F0C940E480C94D30F0C94D30F14
:100070000C94D30F0C94D30F0C94D30F0C94D30F78
:100080000C94D30F0C94D30F0C94D30F0C94D30F68
:100090000C94D30F0C94D30F0C94D30F0C94D30F58
:1000A0000C94D30F0C94D30F0C94D30F0C94D30F48
:1000B0000C94D30F0C94D30F0C94D30F0C94D30F38
:1000C0000C94D30F0C94D30F0C94D30F0C94D30F28
:1000D0000C94D30F0C94D30F0C94D30F0C94D30F18
:1000E0000C94D30F9A80A980C880D780F280F680C4
:1000F000F980FD800081048107810B81158139B26F
:100100003EB243B24DB257B2D0B261B269B271B22F
:100110007BB285B28FB29EB2A8B2D0B2B2B2BCB23C
:10012000C6B2F1B2F4B2E3B2E7B2EDB22BB3F8B2B9
:10013000FCB202B306B30AB310B314B318B32BB3B3
:100140001EB322B326B3084AD73B3BCE016E84BC14
:10015000BFFDC12F3D6C74319ABD56833DDA3D0021
:10016000C77F11BED9E4BB4C3E916BAAAABE00006A
:1001700000803F05A84CCDB2D44EB93836A9020C48
:1001800050B9918688083CA6AAAA2ABE0000008021
:100190003F004D383420582059205A2045004361F3
:1001A0006E6E6F7420656E7465722073756264691B
:1001B000723A20006175746F25692E67006572724E
:1001C0006F722077726974696E6720746F20666938
:1001D0006C65004E6F74205344207072696E7469B0
:1001E0006E67005344207072696E74696E67206296
:1001F000797465200044656C6574696F6E20666172
:10020000696C65642C2046696C653A200046696C0F
:10021000652064656C657465643A006F70656E2076
:100220006661696C65642C2046696C653A200057EC
:10023000726974696E6720746F2066696C653A2014
:10024000002E0A006F70656E206661696C65642C13
:100250002046696C653A20002E0A006F70656E209A
:100260006661696C65642C2046696C653A200046BD
:10027000696C652073656C656374656400205369FF
:100280007A653A200046696C65206F70656E65641A
:100290003A20006F70656E206661696C65642C2081
:1002A00046696C653A20004E6F7720667265736808
:1002B0002066696C653A20004E6F7720646F696E26
:1002C000672066696C653A20002220706F730022F7
:1002D00020706172656E743A2200535542524F5538
:1002E00054494E452043414C4C20746172676574FB
:1002F0003A22004B494C4C45442E200074727969D7
:100300006E6720746F2063616C6C207375622D675B
:10031000636F64652066696C657320776974682013
:10032000746F6F206D616E79206C6576656C732ECD
:10033000204D4158206C6576656C2069733A004DFC
:100340003234004D323320257300534420636172F0
:1003500064206F6B006F70656E526F6F7420666102
:10036000696C656400766F6C756D652E696E697475
:10037000206661696C656400534420696E6974206D
:100380006661696C0020204D3230302044300020FE
:10039000204D3230302044002044697361626C6526
:1003A000640046696C616D656E7420736574746970
:1003B0006E67733A00204C0020430020440020491F
:1003C0000020204D333031205000504944207365C7
:1003D0007474696E67733A00204600204200202042
:1003E0004D31343520533120480020460020420052
:1003F00020204D3134352053302048004D61746544
:100400007269616C206865617475702070617261D9
:100410006D65746572733A00205A002059002020DF
:100420004D323036205800486F6D65206F66667318
:10043000657420286D6D293A00204500205A00205F
:10044000580020420020540020204D3230352053E7
:1004500000416476616E63656420766172696162F1
:100460006C65733A20533D4D696E20666565647214
:1004700061746520286D6D2F73292C20543D4D69C2
:100480006E2074726176656C206665656472617455
:100490006520286D6D2F73292C20423D6D696E6992
:1004A0006D756D207365676D656E742074696D651B
:1004B00020286D73292C20583D6D6178696D756D0C
:1004C000205859206A65726B20286D6D2F73292C76
:1004D00020205A3D6D6178696D756D205A206A65DE
:1004E000726B20286D6D2F73292C2020453D6D6186
:1004F00078696D756D2045206A65726B20286D6D79
:100500002F73290020540020520020204D32303417
:10051000205000416363656C65726174696F6E732E
:100520003A20503D7072696E74696E672C20523D9E
:100530007265747261637420616E6420543D7472DC
:100540006176656C00204500205A0020590020206B
:100550004D3230312058004D6178696D756D204104
:100560006363656C65726174696F6E20286D6D2FB1
:100570007332293A00204500205A002059002020DB
:100580004D3230332058004D6178696D756D2066AD
:10059000656564726174657320286D6D2F73293AE7
:1005A00000204500205A0020590020204D393220DB
:1005B000580053746570732070657220756E69748D
:1005C0003A0048617264636F6465642044656661E3
:1005D000756C742053657474696E6773204C6F6119
:1005E000646564005072696E7465722068616C7431
:1005F00065642E206B696C6C28292063616C6C65C6
:100600006421004B494C4C45442E20004B494C4C36
:1006100045442E200020746F6F206C6F6E6720653C
:100620007874727573696F6E2070726576656E741A
:1006300065640020636F6C642065787472757369FB
:100640006F6E2070726576656E746564006F6B0006
:10065000526573656E643A20004F66667365747305
:10066000206170706C696564004572723A20546F45
:100670006F206661722100546F6F20666172206680
:10068000726F6D207265666572656E636520706F4E
:10069000696E740053657474696E67205472617674
:1006A000656C20416363656C65726174696F6E3A55
:1006B000200053657474696E6720526574726163BB
:1006C0007420416363656C65726174696F6E3A2072
:1006D0000053657474696E67205072696E742041AE
:1006E0006363656C65726174696F6E3A200053656F
:1006F0007474696E67205072696E7420616E642034
:1007000054726176656C20416363656C65726174D7
:10071000696F6E3A20004D31343520533C696E6468
:1007200065783E206F7574206F662072616E676514
:100730002028302D3129007A5F6D61783A20007AC7
:100740005F6D696E3A2000795F6D61783A200079BB
:100750005F6D696E3A2000785F6D61783A200078AD
:100760005F6D696E3A2000205A3A0020593A002005
:10077000436F756E7420583A200020453A00205A85
:100780003A0020593A00583A004649524D574152D2
:10079000455F4E414D453A4D61726C696E20312E78
:1007A000312E302D524336202847697468756229EE
:1007B00020534F555243455F434F44455F55524C7C
:1007C0003A68747470733A2F2F6769746875622E73
:1007D000636F6D2F4D61726C696E4669726D7761E2
:1007E00072652F4D61726C696E2050524F544F43A9
:1007F0004F4C5F56455253494F4E3A312E30204DA3
:10080000414348494E455F545950453A4849432071
:1008100050727573612069332045585452554445D0
:10082000525F434F554E543A3120555549443A632F
:10083000656465326132662D343161322D3437346E
:10084000382D396231322D633535633632663336B1
:100850003766660A00484943205072757361206903
:1008600033204F66662E00484943205072757361ED
:100870002069332072656164792E004265642064CA
:100880006F6E652E003F0020573A00426564204895
:10089000656174696E672E0048656174696E6720D2
:1008A000646F6E652E003F0020573A004865617402
:1008B000696E672E2E2E0048494320507275736171
:1008C0002069332072656164792E006F6B004D31B1
:1008D00031332053004B494C4C45442E20004543B6
:1008E000484F00494E464F004552524F5253004424
:1008F000525952554E00434F4D4D554E4943415468
:10090000494F4E006F666600DE08E308E808EF080E
:10091000F60844454255473A0048656174696E6778
:100920002E2E2E0048494320507275736120693382
:100930002072656164792E002569206D696E2C2016
:1009400025692073656300456E642066696C6520C7
:100950006C69737400426567696E2066696C652016
:100960006C697374004E6F206D6F76652E00484978
:100970004320507275736120693320726561647918
:100980002E00526573756D696E67207072696E74A2
:10099000005761697420666F7220757365722E2E20
:1009A0002E0054455354005761726E696E673A20A9
:1009B000486F6D696E672042756D70204469766975
:1009C000736F72203C203100536C6565702E2E2EA3
:1009D0000020403A002042403A00202F0020423AB6
:1009E00000202F0020543A00627573793A2070611C
:1009F0007573656420666F7220696E70757400622D
:100A00007573793A2070617573656420666F722022
:100A10007573657200627573793A2070726F6365E1
:100A20007373696E6700220A00556E6B6E6F776E86
:100A300020636F6D6D616E643A20220020496E76EE
:100A4000616C696420657874727564657220002534
:100A50006920686F757273202569206D696E7574E1
:100A6000657300446F6E65207072696E74696E679D
:100A70002066696C65004B494C4C45442E20005360
:100A8000544F505045442E20005072696E74657268
:100A90002073746F707065642064756520746F20B6
:100AA0006572726F72732E204669782074686520B3
:100AB0006572726F7220616E6420757365204D39A6
:100AC000393920746F20726573746172742E202816
:100AD00054656D70657261747572652069732072FA
:100AE000657365742E205365742069742061667483
:100AF00065722072657374617274696E6729004E45
:100B00006F204C696E65204E756D62657220776945
:100B1000746820636865636B73756D2C204C61731A
:100B200074204C696E653A20004E6F2043686563FF
:100B30006B73756D2077697468206C696E65206EC3
:100B4000756D6265722C204C617374204C696E6502
:100B50003A2000636865636B73756D206D69736D12
:100B6000617463682C204C617374204C696E653A23
:100B700020004C696E65204E756D62657220697348
:100B8000206E6F74204C617374204C696E65204E2A
:100B9000756D6265722B312C204C617374204C6929
:100BA0006E653A20004D31313000446F6E65207320
:100BB0006176696E672066696C652E004D3239007A
:100BC0002020506C616E6E65724275666665724279
:100BD000797465733A20002046726565204D656D15
:100BE0006F72793A20004A756E20203620323031FB
:100BF0003600436F6D70696C65643A2000284E6161
:100C00007468616E2050616C656C6C612C20484981
:100C100043544F50205052555341206933204D6565
:100C20006E64656C2900207C20417574686F723A8F
:100C30002000323031362D30342D32342031323AEA
:100C4000303000204C6173742055706461746564A9
:100C50003A200020312E312E302D524336004D6186
:100C6000726C696E0020536F6674776172652052F2
:100C70006573657400205761746368646F67205200
:100C800065736574002042726F776E206F757420F3
:100C90005265736574002045787465726E616C20CE
:100CA000526573657400506F776572557000737488
:100CB000617274002200656E7175657565696E6795
:100CC000202200FFFFFF0000A0400000A040000025
:100CD0000040000048430000874300003443000008
:100CE0000000000000000000000000004843000079
:100CF00087430000344300000000000000000000B3
:100D000000006563686F3A004572726F723A0020A6
:100D1000746F6F206C6F6E6720657874727573697D
:100D20006F6E2070726576656E7465640020636F07
:100D30006C6420657874727573696F6E207072656B
:100D400076656E746564007C3C3E5E2B3D3F2F5B98
:100D50005D3B2C2A225C004D383420582059205A03
:100D6000204500456E6473746F70732025632025E1
:100D70006320256320256300205A3A0020593A0059
:100D800020583A00656E6473746F707320686974DC
:100D90003A200024F4D43050C38E20C2A2401782DF
:100DA0008B7011127A910D816CD90AA861E108C784
:100DB000586607615143061E4B5D05C145A7041ADD
:100DC000411104093D9803713931034036DB026556
:100DD000339102D4305402802E1D02632CEE017533
:100DE0002AC501B028A001102781018F2564012B9D
:100DF000244B01E0223401AC211F018D200D018024
:100E00001FFC00841EED00971DDF00B81CD200E619
:100E10001BC600201BBC00641AB200B219A8000A4D
:100E200019A0006A189900D117910040178B00B5DE
:100E300016840031167E00B31579003A157300C789
:100E4000146F0058146A00EE1366008813630025BF
:100E5000135E00C7125B006C12570015125400C1DC
:100E600011510070114F0021114B00D61049008D17
:100E70001047004610440002104200C00F4000809E
:100E80000F3E00420F3C00060F3B00CB0E38009394
:100E90000E37005C0E3500270E3400F30D3200C112
:100EA0000D3100900D3000600D2E00320D2D00052B
:100EB0000D2C00D90C2B00AE0C2900850C29005CF0
:100EC0000C2700350C27000E0C2600E80B2400C46C
:100ED0000B2400A00B23007D0B23005A0B210039AB
:100EE0000B2100180B2000F80A1F00D90A1E00BBB6
:100EF0000A1E009D0A1D00800A1D00630A1C00478F
:100F00000A1B002C0A1B00110A1A00F7091A00DD3F
:100F1000091900C4091900AB091900920917007BCF
:100F2000091800630917004C09160036091600203D
:100F30000916000A091500F5081500E0081400CC90
:100F4000081400B8081400A4081400900813007DC9
:100F50000812006B081300580812004608120034EB
:100F6000081100230811001208110001081100F0F7
:100F7000071000E0071000D0071000C0071000B0F5
:100F8000070F00A107100091070E0083070F0074E0
:100F9000070F0065070E0057070E0049070E003BBC
:100FA000070D002E070E0020070D0013070D000689
:100FB000070D00F9060C00ED060D00E0060C00D44C
:100FC000060C00C8060C00BC060C00B0060C00A401
:100FD000060B0099060C008D060B0082060B0077AD
:100FE000060B006C060B0061060A0057060B004C4E
:100FF000060A0042060A0038060A002E060A0024E5
:10100000060A001A060A001006090007060A00FD73
:10101000050900F4050900EB050900E2050900D9FE
:10102000050900D0050900C7050900BE050900B57E
:10103000050800AD050800A50509009C05080094F9
:101040000508008C050800840508007C050800746C
:101050000508006C050700650508005D05070056DA
:101060000508004E05070047050700400508003841
:10107000050700310507002A050700230507001CA6
:10108000050600160507000F050700080506000203
:10109000050700FB040600F5040700EE040600E85F
:1010A000040600E2040700DB040600D5040600CFB6
:1010B000040600C9040600C3040600BD040600B708
:1010C000040600B1040500AC040600A6040600A056
:1010D0000405009B04060095040500900406008AA0
:1010E00004050085040500800406007A04050075E7
:1010F000040500700405006B04050066040500612A
:101100000405005C04050057040500520405004D69
:1011100004050048040500430405003E0404003AA9
:1011200004050035040500300404002C04050027E4
:10113000040400230405001E0404001A040400161D
:10114000040500110404000D040400090405000452
:1011500004040000040400FC030400F8030400F489
:10116000030400F0030400EC030400E8030400E4BB
:10117000030400E0030400DC030400D8030400D4EB
:10118000030400D0030400CC030400C8030300C51B
:1011900003030024F404D9201BC40C5C0E9804C47F
:1011A000095F0265077101F405F900FB04B300480B
:1011B000048700C10369005803550003034500BEBE
:1011C000023A008402310053022A00290225000459
:1011D000022000E4011C00C8011900AF01170098AB
:1011E000011400840113007101100061011000510D
:1011F000010E0043010D0036010B002B010B0020F6
:10120000010B00150109000C01090003010800FB96
:10121000000800F3000800EB000700E4000600DE11
:10122000000600D8000600D2000600CC000500C76A
:10123000000500C2000500BD000400B9000400B5AF
:10124000000400B1000400AD000400A9000400A5E2
:10125000000300A20003009F0004009B000300980D
:101260000003009500020093000300900003008D2E
:101270000002008B00030088000200860002008448
:10128000000300810002007F0002007D0002007B5D
:10129000000200790002007700010076000200746D
:1012A00000020072000100710002006F0002006D78
:1012B0000001006C0002006A000100690002006782
:1012C0000001006600010065000100640002006288
:1012D00000010061000100600001005F0002005D8C
:1012E0000001005C0001005B0001005A0001005990
:1012F0000001005800010057000100560001005590
:10130000000100540001005300000053000100528E
:1013100000010051000100500001004F0001004E8B
:101320000000004E0001004D0001004C0001004B88
:101330000000004B0001004A000100490001004884
:101340000000004800010047000100460000004680
:101350000001004500000045000100440001004379
:101360000000004300010042000000420001004173
:1013700000000041000100400001003F0000003F6C
:101380000001003E0000003E0001003D0000003D65
:101390000001003C0000003C0000003C0001003B5C
:1013A0000000003B0001003A0000003A0001003953
:1013B000000000390001003800000038000000384B
:1013C0000001003700000037000100360000003641
:1013D0000000003600010035000000350000003537
:1013E000000100340000003400000034000100332C
:1013F0000000003300000033000100320000003222
:101400000000003200010031000000310000003116
:101410000001003000000030000000300001002F0B
:101420000000002F0000002F0000002F0001002E00
:101430000000002E0000002E0001002D0000002DF5
:101440000000002D0000002D0001002C0000002CE9
:101450000000002C0000002C0001002B0000002BDD
:101460000000002B0000002B0001002A0000002AD1
:101470000000002A0000002A0001002900000029C5
:1014800000000029000000290000002900010028B8
:1014900000000028000000280000002800000028AC
:1014A000000100270000002700000027000000279F
:1014B0000000002700010026000000260000002692
:1014C0000000002600000026000100250000002585
:1014D0000000002500000025000000250000002578
:1014E000000100240000002400000024000000246B
:1014F000000000240001002300000023000000235E
:10150000000000230000002300000023000000234F
:101510000001002200000022000000220000002242
:101520000000002200000022000100210000002134
:101530000000002100000021000000210000002127
:101540000000002100010020000000200000002019
:10155000000000200000002000000020000000200B
:10156000000000200001001F0000001F0000001FFD
:101570000000001F0000001F0000001F0000001FEF
:101580000001001E0000001E0000001E0000001EE2
:101590000000004D494E54454D50207472696767F4
:1015A00065726564004572723A204D494E54454D4E
:1015B0005020424544004D415854454D50207472CE
:1015C00069676765726564004572723A204D4158DB
:1015D00054454D502042454400546865726D616C1D
:1015E0002052756E6177617900544845524D414CE7
:1015F0002052554E415741590048656174696E67E4
:10160000206661696C65640048656174696E672075
:101610006661696C6564004D494E54454D502074B7
:101620007269676765726564004572723A204D4958
:101630004E54454D5000626564002C2073797374DC
:10164000656D2073746F70706564212048656174E6
:1016500065725F49443A20004D415854454D502031
:10166000747269676765726564004572723A204DED
:10167000415854454D500023646566696E652020CD
:1016800044454641554C545F4B64200023646566D5
:10169000696E65202044454641554C545F4B692096
:1016A0000023646566696E65202044454641554CBB
:1016B000545F4B702000504944204175746F74751D
:1016C0006E652066696E6973686564212050757463
:1016D00020746865206C617374204B702C204B69FA
:1016E00020616E64204B6420636F6E7374616E744E
:1016F000732066726F6D2062656C6F7720696E74FF
:101700006F20436F6E66696775726174696F6E2EC4
:101710006800504944204175746F74756E65206689
:1017200061696C6564212074696D656F7574005022
:101730004944204175746F74756E65206661696CEB
:101740006564212054656D706572617475726520E1
:10175000746F6F206869676800204B643A2000202E
:101760004B693A2000204B703A200020436C617393
:101770007369632050494420002054753A200020AA
:101780004B753A2000206D61783A2000206D696E1B
:101790003A200020643A200020626961733A2000F8
:1017A00070012C0190012701B0012201C0011D012F
:1017B000F00118011002130130020E01600209014C
:1017C00090020401C002FF000003FA004003F5008C
:1017D0008003F000D003EB002004E6007004E10079
:1017E000E004DC004005D700C005D2004006CD0073
:1017F000D006C8008007C3003008BE00F008B9005A
:10180000C009B400B00AAF00B00BAA00D00CA5000C
:10181000000EA000500F9B00C010960050129100C7
:1018200000148C00C0158700B0178200B0197D002D
:10183000D01B7800001E730040206E0090226900CB
:10184000F024640040275F0090295A00E02B5500E7
:10185000102E500020304B0010324600E033410083
:1018600090353C001037370070383200A0392D0019
:10187000B03A2800A03B2300603C1E00103D190038
:10188000903D1400103E0F00703E0A00C03E05005F
:10189000003F0000436172642072656D6F7665647D
:1018A000004361726420696E736572746564004DF3
:1018B0003330332055312045256920532569004DAB
:1018C000343238002D2D2D2D2D2D007C4D61726C64
:1018D000696E7C002D2D2D2D2D2D0020312E312EC9
:1018E000302D5243360020003F002D2D3A2D2D0083
:1018F0002D2D2D005344005A00590020005800019E
:101900002000012000466C6F7700466C6F77004620
:10191000616E2073706565640046616E207370654A
:1019200065640042656400426564004E6F7A7A6CBB
:1019300065004E6F7A7A6C6500537065656400537C
:1019400070656564004D61696E004D6F7665205865
:10195000004D6F76652059004D6F7665205A004521
:101960007874727564657200457874727564657216
:10197000004D6F7665205A004D6F76652059004DF9
:101980006F76652058004D6F766520617869730029
:101990004D6F766520302E316D6D004D6F76652070
:1019A000316D6D004D6F76652031306D6D00507278
:1019B0006570617265005072656865617420504C95
:1019C0004120426564005072656865617420504C26
:1019D00041005072657061726500507265686561A2
:1019E000742041425320426564005072656865610D
:1019F00074204142530050726570617265004D3829
:101A0000300053776974636820706F776572206F58
:101A10006E004D38310053776974636820706F77BA
:101A20006572206F666600436F6F6C646F776E003F
:101A30005072656865617420414253005072656858
:101A400065617420504C41004D3834004469736125
:101A5000626C65207374657070657273004D6F768B
:101A60006520617869730053657420686F6D652027
:101A70006F66667365747300473238004175746F22
:101A800020686F6D65004D61696E004265640042BB
:101A90006564004E6F7A7A6C65004E6F7A7A6C6579
:101AA0000046616E2073706565640046616E207348
:101AB000706565640054656D7065726174757265FA
:101AC0000042656400426564004E6F7A7A6C65007E
:101AD0004E6F7A7A6C650046616E2073706565643E
:101AE0000046616E2073706565640054656D7065B5
:101AF0007261747572650050726568656174204129
:101B0000425320636F6E6600507265686561742091
:101B1000504C4120636F6E660050494420417574FB
:101B20006F74756E6500504944204175746F74750B
:101B30006E65005049442D43005049442D430050E8
:101B400049442D44005049442D44005049442D49F6
:101B5000005049442D49005049442D5000504944FB
:101B60002D5000200220466163740020022046614F
:101B70006374002002204D6178002002204D6178BE
:101B8000002002204D696E002002204D696E004148
:101B900075746F74656D70004F6666004F6E20003F
:101BA00046616E2073706565640046616E207370D7
:101BB0006565640042656400426564004E6F7A7A30
:101BC0006C65004E6F7A7A6C6500436F6E74726F4D
:101BD0006C004573746570732F6D6D00457374658B
:101BE00070732F6D6D005A73746570732F6D6D0077
:101BF0005A73746570732F6D6D00597374657073CB
:101C00002F6D6D005973746570732F6D6D0058736F
:101C1000746570732F6D6D005873746570732F6DDC
:101C20006D00412D74726176656C00412D74726196
:101C300076656C00412D7265747261637400412D8C
:101C40007265747261637400416D61782045004172
:101C50006D6178204500416D6178205A00416D61C9
:101C600078205A00416D6178205900416D617820DB
:101C70005900416D6178205800416D61782058000D
:101C80005654726176206D696E00565472617620EA
:101C90006D696E00566D696E00566D696E00566D09
:101CA0006178204500566D6178204500566D617859
:101CB000205A00566D6178205A00566D617820597F
:101CC00000566D6178205900566D61782058005695
:101CD0006D617820580056652D6A65726B005665F7
:101CE0002D6A65726B00567A2D6A65726B00567AA2
:101CF0002D6A65726B005678792D6A65726B005695
:101D000078792D6A65726B00416363656C0041638D
:101D100063656C00436F6E74726F6C0046696C2E65
:101D2000204469612E0046696C2E204469612E00B2
:101D30004520696E206D6D33004F6666004F6E2042
:101D400000436F6E74726F6C00526573746F7265CE
:101D5000206661696C736166650046696C616D65DA
:101D60006E74004D6F74696F6E0054656D706572AE
:101D70006174757265004D61696E00052E2E004D0F
:101D800061696E004E6F205344206361726400509D
:101D900072696E742066726F6D2053440053746FC5
:101DA00070207072696E7400526573756D65207075
:101DB00072696E74005061757365207072696E741B
:101DC00000436F6E74726F6C005072657061726563
:101DD0000054756E6500496E666F207363726565A9
:101DE0006E0000000A0B02090C0D0E080703040127
:101DF00000000000000000000000000000000000E3
:101E000000000000000000000000000000001211AF
:101E100010000000000000000000000000000000B2
:101E2000000000000000000001021020200808103F
:101E3000204010204080020102010804020101023A
:101E40000408102040808040201008040201800413
:101E5000020180402010080402010804020101026E
:101E6000040810204080010204081020408005056D
:101E70000505070508080808020202020A0A080800
:101E8000040404040101010101010101030303032E
:101E900003030303040707070C0C0C0C0C0C0C0CBD
:101EA0000202020206060606060606060B0B0B0BCE
:101EB0000B0B0B0B000020002300260029002C0038
:101EC0002F0032000001000003010601090100009B
:101ED0002200250028002B002E00310034000201D2
:101EE0000000050108010B0100002100240027006B
:101EF0002A002D0030003300010100000401070119
:101F00000A014E414E494E495459494E46CDCCCC1A
:101F10003D0AD7233C17B7D13877CC2B329595E6BD
:101F2000241FB14F0A000020410000C84200401C9D
:101F30004620BCBE4CCA1B0E5AAEC59D7400034859
:101F40009E8C0B4811241FBECFEFD1E2DEBFCDBF68
:101F500000E00CBF14E0A0E0B2E0EEECFEE701E030
:101F60000BBF02C007900D92A237B107D9F723E14A
:101F7000A2E7B4E001C01D92AE3CB207E1F71FE159
:101F8000C2E4DFE100E006C022970109FE010BBFB9
:101F90000E9437B9CE33D10780E00807A9F70E9425
:101FA000C3B30C9456BF0C940000CF93DF93EC01A5
:101FB00060E08E810E9465B381E090E00E94A9B14B
:101FC00061E08E810E9465B381E090E00E94A9B13A
:101FD00060E08E810E9465B384E690E0DF91CF914E
:101FE0000C94A9B1EF92FF920F931F93CF93DF93BD
:101FF0008C01C0E0D0E0E62EF12CB7010C2E02C01F
:10200000759567950A94E2F76170F801EC0FFD1F72
:1020100087810E9465B32196C430D10571F7C8014C
:10202000DF91CF911F910F91FF90EF90BECFEF9274
:10203000FF920F931F93CF93DF938C01C0E0D0E00A
:10204000E62EF12CB7010C2E02C0759567950A9407
:10205000E2F76170F801EC0FFD1F87810E9465B304
:102060002196C830D10571F7C801DF91CF911F913A
:102070000F91FF90EF9099CF1F93CF93DF93EC01D7
:10208000162F642F8C810E9465B38D818F3F19F0CC
:1020900060E00E9465B38F85612F84FF05C0CE018B
:1020A000DF91CF911F91C3CF70E084E07595679564
:1020B0008A95E1F7CE0196DF612FCE01DF91CF91B6
:1020C0001F9190CF40E0D8CF61E0FCDF80ED97E03A
:1020D0000C94A9B1443008F043E0FC012389421775
:1020E00010F04FEF420FFC01E40FF11D2489260F81
:1020F0002068622FE7CFFC016089262F2460208BA7
:102100006C60E0CF0F931F93CF93DF93EC014230CD
:1021100018F08F8588608F874B8B1C8A80E48D8BAD
:102120006E8B70E0605C7F4F6F8B222329F0413013
:1021300019F48F8584608F8761E08C810E942CB3B5
:102140008D818F3F19F061E00E942CB361E08E8198
:102150000E942CB300E010E08F8584FF03C088E06C
:1021600090E002C084E090E00817190754F4FE01E3
:10217000E00FF11F61E087810E942CB30F5F1F4FBA
:10218000EBCF80E593EC0E94A9B160E08C810E94C6
:1021900065B360E08E810E9465B38D818F3F19F039
:1021A00060E00E9465B36F8564FD19C063E0CE01F5
:1021B00019DF84E991E10E94A9B163E0CE0112DF49
:1021C00084E991E10E94A9B163E0CE010BDF86E9C9
:1021D00090E00E94A9B162E0CE0104DF13C060620A
:1021E000CE0170DF84E991E10E94A9B16F85606240
:1021F000CE0168DF86E990E00E94A9B16F85606238
:10220000CE0160DF6F856062CE015CDF84E0888B89
:10221000CE0171DFCE0158DF82E0898B66E0CE010E
:10222000DF91CF911F910F914DCFCF92EF920F93EE
:10223000FC011382128288E393E09183808364839C
:102240008FEF8583468327830087E186C2861386C6
:10225000148615861686178620E041E060E1CF01DE
:102260000F91EF90CF904ECFCF92DF92EF92FF92EF
:102270000F931F93CF93DF931F921F92CDB7DEB7BB
:102280008C01677088E0689FB00111246064C80108
:1022900049835A8317DF4981C42E5A81D52EE12CF8
:1022A000F12CD6016D916D01D801ED91FC91019059
:1022B000F081E02DC8011995BFEFEB1AFB0AE8E0A9
:1022C000EE16F10471F70F900F90DF91CF911F91EF
:1022D0000F91FF90EF90DF90CF90089541E0CCDE1A
:1022E00081E090E00895452B31F0389A409A0E94A1
:1022F00072B1409808950C9472B1FC011482178257
:10230000138212828FEF93E09183808308952FEFE1
:1023100033E0FC01318320832781222319F00496C6
:102320000C9400610895CF92DF92EF92FF920F9389
:102330001F93CF93DF93EC018F96DFDFCE01805B9D
:102340009F4FDBDF7E012FE6E20EF11C87016E015D
:102350003BE5C31A3EEFD30AC801CFDF015E1F4F32
:102360000C151D05C9F7FE01EA55FE4F89E1818371
:1023700014823596178ACE0187539E4FBEDFFE0129
:10238000E658FD4F10821182128213823496108219
:102390001182128213821A821B8218821982F8011A
:1023A0001082FE01E851FE4F108286E391E0F701B2
:1023B0009C01119221503040E1F7FE01EA57FD4F98
:1023C00081E080831EA61DA60E9443B1CE57DD4F3B
:1023D00068577C4E8F4F9F4F688379838A839B8396
:1023E000DF91CF911F910F91FF90EF90DF90CF90F1
:1023F0000895FC0120E03EE2DB014C91403241F0C7
:10240000283011F430833196DB014C9140833196B2
:102410002F5F6F5F7F4F2B3079F7108208952F92D7
:102420003F924F925F926F927F928F929F92AF9264
:10243000BF92CF92DF92EF92FF920F931F93CF93B1
:10244000DF93CDB7DEB7C657D1090FB6F894DEBF1C
:102450000FBECDBF8C016B015A0129012DB73EB7CC
:10246000E3963FAF2EAFE397AD961FAEAD9734E046
:10247000A30EB11C4296E5969FAF8EAFE59718016B
:1024800099E7291A9DEF390AF801E757FD4FAF96F2
:10249000FFAFEEAFAF973801F5E06F0E711C7E0114
:1024A0002FE5E20EF11C80E490E08C0F9D1F049656
:1024B000E7969FAF8EAFE797E5964EAD5FADE59798
:1024C000BE016F5F7F4FC5010E94665F18160CF05A
:1024D00041C12C85322F3871303109F0BCC0F10177
:1024E000808191810197029708F4B5C02DB73EB75E
:1024F000E1963FAF2EAFE197BE016F5F7F4FC701FF
:1025000078DF81E0F601908191119DC0E1E0F0E07B
:10251000D7010D900020E9F7EE19FF09EA0FFB1F24
:1025200031962DB73EB72E1B3F0B0FB6F8943EBF2A
:102530000FBE2DBFEDB7FEB731964F01882319F0BE
:102540006CE373E001C0B601C4010E946DBCB70129
:10255000C4010E944EBC6CE373E0C4010E944EBCF7
:10256000CE01805C9F4FC9DE21E0A701B501E7964F
:102570008EAD9FADE7970E94F762811137C0F101E0
:1025800080819181892B91F5E2E0FDE0849188239F
:1025900041F09091C00095FFFCCF8093C60031962A
:1025A000F5CFEEE3F3E08191882339F09091C000FC
:1025B00095FFFCCF8093C600F6CF8091C00085FFC9
:1025C000FCCF8AE08093C600F7018191882339F01F
:1025D0009091C00095FFFCCF8093C600F6CF80910C
:1025E000C00085FFFCCF8AE08093C6008BE1FE012E
:1025F000EC5BFF4FDE01959601900D928A95E1F715
:1026000024968EAD9FAD24979CA38BA38FEF93E070
:102610009AA389A320E030E0AE014F5D5F4FB40183
:10262000C801FDDECE01819672DECE01805C9F4F37
:102630006EDEE1962EAD3FADE1970FB6F8943EBF4A
:102640000FBE2DBF39CF80E001900020E9F7319710
:10265000EC19FD095DCF8981882309F47BC0853E93
:1026600009F42ACF8E3209F427CFF80182898E32FD
:1026700009F422CF23FD20CF81E0303109F080E042
:10268000F8018483811108C08985873409F014CF4B
:102690008A858E3709F410CFF101808191818130D4
:1026A000910569F08230910581F1892B09F004CF01
:1026B000BE016F5F7F4FC3019CDEF60110C0AF9675
:1026C000EEADFFADAF9780819181019691838083BC
:1026D000F3CE9091C00095FFFCCF8093C60081910E
:1026E0008111F7CFF3018191882339F09091C000D7
:1026F00095FFFCCF8093C600F6CF8091C00085FF88
:10270000FCCF8AE08093C600D7CEBE016F5F7F4FBB
:10271000C3016FDE4114510439F0B301C2010E94BC
:102720003BBC892B79F416C0AD96FFADAD972F2F2A
:1027300030E0AF96EEADFFADAF9780819181281765
:10274000390741F0AD96FFADAD97FF5FAD96FFAF96
:10275000AD97B2CEE3962EAD3FADE3970FB6F894AA
:102760003EBF0FBE2DBFCA58DF4F0FB6F894DEBF75
:102770000FBECDBFDF91CF911F910F91FF90EF90D2
:10278000DF90CF90BF90AF909F908F907F906F9091
:102790005F904F903F902F900895EF92FF920F938C
:1027A0001F93CF93DF93CDB7DEB76F970FB6F89433
:1027B000DEBF0FBECDBF8C01FC01E957FD4F11827A
:1027C00010827C0183E3E80EF11C40E050E0BA0186
:1027D000C7010E941D608BE1F701DE011596019093
:1027E0000D928A95E1F7F80181A992A99C838B83C8
:1027F0008FEF93E09A83898320E030E0AE014F5F52
:102800005F4F66E174E0C8010ADECE0101967FDD0C
:102810006F960FB6F894DEBF0FBECDBFDF91CF919C
:102820001F910F91FF90EF900895EF92FF920F93F9
:102830001F93CF93DF93EC011B828EA9882321F095
:10284000CE01C3960E9400617E018AE5E81A8EEFF0
:10285000F80A45E360E0C7010E947D5B81111FC05B
:10286000E2E0FDE08491882341F09091C00095FF63
:10287000FCCF8093C6003196F5CFE8E7F3E0849172
:10288000882341F09091C00095FFFCCF8093C60053
:102890003196F5CF8091C00085FFFCCF76C08E01C8
:1028A00005551E4F41E0B701C8010E940169811121
:1028B00026C040E0B701C8010E94016981111FC014
:1028C000E8E0FDE08491882341F09091C00095FFFD
:1028D000FCCF8093C6003196F5CFE5E6F3E0849116
:1028E000882341F09091C00095FFFCCF8093C600F3
:1028F0003196F5CF8091C00085FFFCCF46C0B8016E
:10290000CE01C3960E940A5E81111FC0E8E0FDE07F
:102910008491882341F09091C00095FFFCCF809373
:10292000C6003196F5CFE5E5F3E08491882341F0C8
:102930009091C00095FFFCCF8093C6003196F5CFF3
:102940008091C00085FFFCCF20C081E08B83E2E056
:10295000FDE08491882341F09091C00095FFFCCF69
:102960008093C6003196F5CFEAE4F3E084918823A2
:1029700041F09091C00095FFFCCF8093C600319646
:10298000F5CF8091C00085FFFCCF8AE08093C60020
:10299000CE01805B9F4F2BE1FE01F396DC01149684
:1029A00001900D922A95E1F729A93AA9FC013383F8
:1029B00022833297AF96D183C083DF91CF911F914D
:1029C0000F91FF90EF900895FC01128213820895F9
:1029D000CF92DF92EF92FF920F931F93CF93DF93EB
:1029E000CDB7DEB7CDB6DEB6FB0101900020E9F72A
:1029F000E61BF70B34968DB79EB78E1B9F0B0FB659
:102A0000F8949EBF0FBE8DBF0DB71EB70F5F1F4F4F
:102A10007F936F9383E493E09F938F931F930F9320
:102A20000E9491BC780194E0E90EF11C0F900F9088
:102A30000F900F900F900F90F7018081882349F03D
:102A4000992787FD90950E94DCBBF70181937F0158
:102A5000F3CF60E0C8010E949E238FE393E00E94C1
:102A600043240FB6F894DEBE0FBECDBEDF91CF91EA
:102A70001F910F91FF90EF90DF90CF900895FC0190
:102A80002381222311F021E022830895FC01228179
:102A9000211112820895AF92BF92CF92DF92EF92EE
:102AA000FF920F931F93CF93DF931F92CDB7DEB7A3
:102AB0008C018FE2FB0181935F01D12C21E0780131
:102AC000FBE5EF1AFEEFFF0A8FE1C82EF7018081C8
:102AD000D816C8F4B501C801CD9C800D911D1124F4
:102AE0008D589F4F29830E94B15DC50129815C01EA
:102AF0000196F5013081332321F02D3810F42F5F3A
:102B0000F6CFD394E3CF27FD11C0B501C80183539D
:102B10009E4F0F90DF91CF911F910F91FF90EF90FB
:102B2000DF90CF90BF90AF900C94B15DF501108213
:102B30000F90DF91CF911F910F91FF90EF90DF9059
:102B4000CF90BF90AF9008953F924F925F926F9257
:102B50007F928F929F92AF92BF92CF92DF92EF922D
:102B6000FF920F931F93CF93DF93CDB7DEB7AC9750
:102B70000FB6F894DEBF0FBECDBF7C015B01FC0138
:102B80008381882309F4EDC0C70183539E4F0E94BF
:102B90000061F7011282CE0101966C01AEDB2701C4
:102BA0009EE4490E511CC7018F96F20191838083E8
:102BB000F50180818F3209F077C06FE270E0C501C6
:102BC0000E9459BC8C010F5F1F4F9AE0392E0115EE
:102BD000110509F46FC06FE270E0C8010E9459BC92
:102BE0004C01009709F467C00817190708F063C083
:102BF0003C01601A710AA301B801CE0180960E94BF
:102C000082BCE0E2F0E0EC0FFD1FE60DF71D108244
:102C1000FE01B0968191882339F09091C00095FF14
:102C2000FCCF8093C600F6CF8091C00085FFFCCF1B
:102C30003092C600F201608171816115710519F051
:102C40006C5F7F4F02C060E070E021E0AE01405E4B
:102C50005F4FCE0105960E94F76281111EC0EBE125
:102C6000F2E08491882341F09091C00095FFFCCF61
:102C70008093C6003196F5CFFE01B09681918823EE
:102C800039F09091C00095FFFCCF8093C600F6CF3D
:102C90008091C00085FFFCCF5FC0F201D182C0826D
:102CA00084010F5F1F4F93CFC701805B9F4FF201DD
:102CB000918380838501F20180819181009711F0D9
:102CC000049602C080E090E0B8010E94CD638111BB
:102CD00003C0E5EFF1E02EC0EDE0F2E0849188233F
:102CE00041F09091C00095FFFCCF8093C6003196D3
:102CF000F5CFF8018191882339F09091C00095FFBC
:102D0000FCCF8093C600F6CF8091C00085FFFCCF3A
:102D10008AE08093C600F701E258FD4F10821182CD
:102D2000128213821CC09091C00095FFFCCF80934B
:102D3000C600319684918111F6CFF80181918823E4
:102D400039F09091C00095FFFCCF8093C600F6CF7C
:102D50008091C00085FFFCCF8EE28093C600C60143
:102D6000D6DAAC960FB6F894DEBF0FBECDBFDF91BA
:102D7000CF911F910F91FF90EF90DF90CF90BF9078
:102D8000AF909F908F907F906F905F904F903F900B
:102D90000895CF93DF93EC018B81811103C0E3EDA4
:102DA000F1E039C0E3EEF1E08491882341F09091A5
:102DB000C00095FFFCCF8093C6003196F5CFFE0191
:102DC000E258FD4F40815181628173812AE030E0F9
:102DD00086E799E00E9476498091C00085FFFCCF8C
:102DE0008FE28093C600C658DD4F488159816A81C1
:102DF0007B812AE030E086E799E00E947649809165
:102E0000C00085FFFCCF0EC09091C00095FFFCCFA5
:102E10008093C600319684918111F6CF8091C000D5
:102E200085FFFCCF8AE08093C600DF91CF910895A3
:102E3000AF92BF92CF92DF92EF92FF920F931F93C8
:102E4000CF93DF935C01EB01FB0101900020E9F7D8
:102E50008F0101501109061B170B6C01F3E3CF1A08
:102E6000FEEFDF0AF60110826EE470E0CE010E94F0
:102E700059BC7C01009729F4F8013197EC0FFD1F34
:102E80000DC060E270E00E9459BCEC0121966AE23C
:102E900070E0C7010E9459BCFC0131978DE081832D
:102EA0008AE082831382BE01C50187539E4F0E9430
:102EB000AA65F6018081882309F1E8E0FDE08491AC
:102EC000882341F09091C00095FFFCCF8093C6000D
:102ED0003196F5CFEDEBF1E08491882341F09091AC
:102EE000C00095FFFCCF8093C6003196F5CF80914E
:102EF000C00085FFFCCF8AE08093C600DF91CF91B0
:102F00001F910F91FF90EF90DF90CF90BF90AF9007
:102F100008956F927F928F929F92AF92BF92CF92BD
:102F2000DF92EF92FF920F931F93CF93DF93CDB772
:102F3000DEB7AA970FB6F894DEBF0FBECDBF8C01E7
:102F40008A579D4F7C01611114C0FC018081882348
:102F500009F498C00E9443B1F801EE57FD4F8080FC
:102F60009180A280B380681979098A099B0997FF2B
:102F700089C0F7011082F8018381811107C0C8015F
:102F800054DCF8018381882309F47CC0F80186A50C
:102F90008F9385A58F9384EB91E09F938F937E0110
:102FA000F1E2EF0EF11CFF92EF920E9491BC0F90A4
:102FB0000F900F900F900F900F90B12CF701019090
:102FC0000020E9F73197EE19FF09BE1684F4670176
:102FD000CB0CD11CB7FCDA94F6018081992787FDD0
:102FE00090950E94DCBBF6018083B394E7CF480143
:102FF000F3E38F0E911C40E050E0BA01C4010E943F
:103000001D60612CCE0101965C0140E050E0B501ED
:10301000C4010E94665F18164CF5712CF5010190F1
:103020000020E9F73197EA19FB097E1674F465016F
:10303000C70CD11C77FCDA94F601808190E00E94E5
:10304000DCBBF60180837394E9CF8A858E37E9F281
:1030500045E050E0B701C5010E9474BC892BA9F678
:10306000B701C801B5DC66246394CFCF611004C0FA
:103070008FEF9FEFF80104C0F80185A596A5019692
:1030800096A785A7AA960FB6F894DEBF0FBECDBF50
:10309000DF91CF911F910F91FF90EF90DF90CF9034
:1030A000BF90AF909F908F907F906F9008950F93F7
:1030B0001F93CF93DF93EC018C0103531E4FC80184
:1030C0000E94B660C8010E94006119821882DF91D7
:1030D000CF911F910F910895CF92DF92EF92FF92BF
:1030E0000F931F93CF93DF93CDB7DEB76F970FB6D4
:1030F000F894DEBF0FBECDBF8C016A017C018EE467
:10310000E80EF11CC801805B9F4FF701918380831B
:10311000E75CFD4F22E030E03183208332967183FB
:10312000608340E050E0BA0104960E941D60F70100
:10313000808191812BE1FC013496DE01159601908E
:103140000D922A95E1F7FC01828193819C838B8308
:103150008FEF93E09A8389839601AE014F5F5F4FB3
:1031600066E174E0C8015BD9CE010196D0D86F96B4
:103170000FB6F894DEBF0FBECDBFDF91CF911F9188
:103180000F91FF90EF90DF90CF9008952F923F9294
:103190004F925F926F927F928F929F92AF92BF9267
:1031A000CF92DF92EF92FF920F931F93CF93DF9313
:1031B000CDB7DEB7AC970FB6F894DEBF0FBECDBF6C
:1031C0008C016B01342EFC018381882309F4CDC26C
:1031D000E053FE4F8081882309F4FAC0211103C017
:1031E000E2E0FDE0CDC07801F8E1EF1AFEEFFF0A62
:1031F000F7018081811103C0E2E0FDE035C0E8E025
:10320000FDE08491882341F09091C00095FFFCCFB0
:103210008093C6003196F5CFECEFF2E084918823DD
:1032200041F09091C00095FFFCCF8093C60031968D
:10323000F5CF4AE050E061E070E086E799E00E9457
:103240004A498091C00085FFFCCF8AE08093C60088
:1032500083EF92E00E94E83B88C29091C00095FF06
:10326000FCCF8093C600319684918111F6CFEAEDB0
:10327000F2E08491882341F09091C00095FFFCCF4B
:103280008093C6003196F5CFF6018191882339F0FD
:103290009091C00095FFFCCF8093C600F6CFEFEC75
:1032A000F2E08491882341F09091C00095FFFCCF1B
:1032B0008093C6003196F5CFF70180813DE8B32EAB
:1032C000B801B89E600D711D112463517E4FC80175
:1032D000E2DBF7018081F801B89EE00DF11D1124B9
:1032E000E351FE4F8191882339F09091C00095FF02
:1032F000FCCF8093C600F6CFE9ECF2E084918823FE
:1033000041F09091C00095FFFCCF8093C6003196AC
:10331000F5CF5801F2E8AF1AFDEFBF0AF501408181
:103320005181628173812AE030E086E799E00E9452
:1033300076498091C00085FFFCCF8AE08093C6006B
:10334000F7012081F80184E0289FE00DF11D112490
:10335000AF0147515E4FF50180819181A281B38118
:10336000FA0180839183A283B3832F5FF7012083C7
:1033700029C09091C00095FFFCCF8093C600319684
:1033800084918111F6CFE8EBF2E08491882341F03B
:103390009091C00095FFFCCF8093C6003196F5CF89
:1033A000F6018191882339F09091C00095FFFCCF00
:1033B0008093C600F6CF8091C00085FFFCCF8AE0E5
:1033C0008093C600C80183539E4F0E94006130C0A5
:1033D000F801E851FE4F1082E2E0FDE0849188237D
:1033E00041F09091C00095FFFCCF8093C6003196CC
:1033F000F5CFE7EAF2E08491882341F09091C00094
:1034000095FFFCCF8093C6003196F5CFF6018191F0
:10341000882339F09091C00095FFFCCF8093C600BF
:10342000F6CF8091C00085FFFCCF8AE08093C60074
:10343000F8011282CE0101965C010E947D112801E3
:103440009EE4490E511CC8018F96F201918380833E
:10345000F60180818F3209F077C07601FFEFEF1A15
:10346000FF0A2AE0222EE114F10409F473C06FE28E
:1034700070E0C7010E9459BC4C01009709F46BC071
:10348000E816F90608F067C03C016E187F08A30132
:10349000B701CE0180960E9482BCE0E2F0E0EC0F22
:1034A000FD1FE60DF71D1082FE01B0968191882365
:1034B00039F09091C00095FFFCCF8093C600F6CF05
:1034C0008091C00085FFFCCF2092C600F201608190
:1034D00071816115710519F06C5F7F4F02C060E06A
:1034E00070E021E0AE01405E5F4FCE0105960E9484
:1034F000F762811121C0E3E9F2E08491882341F071
:103500009091C00095FFFCCF8093C6003196F5CF17
:10351000FE01B0968191882339F09091C00095FF0B
:10352000FCCF8093C600F6CF8091C00085FFFCCF12
:103530008EE28093C60016C1F201B182A0827401AE
:10354000FFEFEF1AFF0A8FCFC801805B9F4FF20198
:10355000918380837601C80183539E4F4C01F20111
:1035600060817181332009F4A3C06115710519F0E0
:103570006C5F7F4F02C060E070E021E0A701C401F2
:103580000E94F762811103C0EBE5F2E075C098017B
:1035900026583D4FF40181899289A389B489F901A4
:1035A00080839183A283B383E5E8F2E0849188234A
:1035B00041F09091C00095FFFCCF8093C6003196FA
:1035C000F5CFF7018191882339F09091C00095FFE4
:1035D000FCCF8093C600F6CFEDE7F2E0849188231C
:1035E00041F09091C00095FFFCCF8093C6003196CA
:1035F000F5CFF90140815181628173812AE030E089
:1036000086E799E00E9476498091C00085FFFCCF53
:103610008AE08093C600F801E258FD4F10821182C3
:1036200012821382EFE6F2E08491882341F09091B8
:10363000C00095FFFCCF8093C6003196F5CF8091F6
:10364000C00085FFFCCF8AE08093C600A70160E040
:1036500070E0C80141DDF8018289882319F0C801B2
:10366000429601C0C70160E07BC09091C00095FF09
:10367000FCCF8093C600319684918111F6CFF7017B
:103680008191882339F09091C00095FFFCCF809301
:10369000C600F6CFE8E5F2E08491882309F462C021
:1036A0009091C00095FFFCCF8093C6003196F4CF77
:1036B0006115710519F06C5F7F4F02C060E070E02A
:1036C00026E5A701C4010E94F762811125C0E4E448
:1036D000F2E08491882341F09091C00095FFFCCFE7
:1036E0008093C6003196F5CFF7018191882339F098
:1036F0009091C00095FFFCCF8093C600F6CFE1E427
:10370000F2E08491882371F19091C00095FFFCCF85
:103710008093C6003196F5CF81E0F8018083EFE217
:10372000F2E08491882341F09091C00095FFFCCF96
:103730008093C6003196F5CFF6018191882339F048
:103740009091C00095FFFCCF8093C600F6CF80918A
:10375000C00085FFFCCF8AE08093C60060E0C7010F
:103760000E949886C5010E948711AC960FB6F89406
:10377000DEBF0FBECDBFDF91CF911F910F91FF90A4
:10378000EF90DF90CF90BF90AF909F908F907F9001
:103790006F905F904F903F902F90089521E0FC0133
:1037A000218320E040E0F2CCCF92DF92EF92FF92B3
:1037B0000F931F93CF93DF93CDB7DEB76F970FB6FD
:1037C000F894DEBF0FBECDBF8C016C012EE4C20E9B
:1037D000D11C805B9F4FF60191838083E75CFD4F96
:1037E00021E030E0318320837801F7E7EF1AFDEF25
:1037F000FF0AF7011182108240E050E0BA010496FE
:103800000E941D60F601808191812BE1FC013496BC
:10381000DE01159601900D922A95E1F7FC01828157
:1038200093819C838B838FEF93E09A83898320E03D
:1038300030E0AE014F5F5F4F66E174E0C8010E9467
:103840000F12CE0101960E948711F70180819181AC
:103850006F960FB6F894DEBF0FBECDBFDF91CF914C
:103860001F910F91FF90EF90DF90CF900895AF924E
:10387000BF92CF92DF92EF92FF920F931F93CF935D
:10388000DF93CDB7DEB76F970FB6F894DEBF0FBEEC
:10389000CDBF8C015B01CE0101960E947D11F80124
:1038A000E95AFF4F80817801811104C02FE2E20EB6
:1038B000F11C03C030E5E30EF11C670144E0C40EC7
:1038C000D11C21E0A501B601CE0105960E94F76248
:1038D00081112DC0E2E0FDE08491882341F09091B8
:1038E000C00095FFFCCF8093C6003196F5CFEEE97E
:1038F000F1E08491882341F09091C00095FFFCCFC6
:103900008093C6003196F5CFF5018191882339F077
:103910009091C00095FFFCCF8093C600F6CF8091B8
:10392000C00085FFFCCF8AE08093C60030C0F8015C
:10393000EB55FE4F80818A30D0F491E0980F908350
:10394000F8012FE1829FE00DF11D1124CF01815973
:103950009F4F2BE1F601DC01149601900D922A9500
:10396000E1F7F70122813381FC0133832283005B7D
:103970001F4F8BE1FE013596D801149601900D92F0
:103980008A95E1F78B819C81F80193838283CE0134
:1039900001960E9487116F960FB6F894DEBF0FBE96
:1039A000CDBFDF91CF911F910F91FF90EF90DF90EE
:1039B000CF90BF90AF900895CF93DF93FC01EB556C
:1039C000FE4F20812223D1F021502083EC013FE1E2
:1039D000239FC00DD11D1124C159DF4F805B9F4F24
:1039E0002BE1FE013496DC01149601900D922A958C
:1039F000E1F72A813B81FC0133832283DF91CF9160
:103A00000895EF92FF920F931F93CF93DF93EC01F2
:103A10000E9416738E0108511E4FF80180819E018D
:103A200023533E4F79018823A1F1C9010E9400610F
:103A3000F801808181508083BE01FDE88F9F600D79
:103A4000711D112463517E4F21E041E0CE019EDBC8
:103A5000F8018081FE0124E0829FE00DF11D112418
:103A6000E751FE4F4081518162817381FE01E2582E
:103A7000FD4F4083518362837383C7010E941D60A1
:103A8000CE01DF91CF911F910F91FF90EF900C9499
:103A90003F15C9010E9400611A8282E991E0F3D6C4
:103AA0008091F40E882349F11092F40E0091FE04E7
:103AB00010E0E801CC0FDD1FC05FDC4E688179812A
:103AC000882777FD8095982F0E9493B52091340226
:103AD0003091350240913602509137020E94F4B67F
:103AE00018165CF419821882C801DF91CF911F91DA
:103AF0000F91FF90EF900C94B978DF91CF911F91C7
:103B00000F91FF90EF900895AF92BF92DF92EF92E6
:103B1000FF920F931F93CF93DF93CDB7DEB7E0975C
:103B20000FB6F894DEBF0FBECDBF80E1EEE9F2E044
:103B3000DE01919601900D928A95E1F780E1EEEA1F
:103B4000F2E0DE01519601900D928A95E1F780E155
:103B5000EEEBF2E0DE01119601900D928A95E1F70D
:103B60007E0181E2E80EF11C05E31FE0BE016F5EFD
:103B70007F4F45E45FE09E012F5F3F4F95E2A92E06
:103B80009FE0B92ED12CF70181919191A191B19132
:103B90007F01F80181939193A193B1938F01FB0170
:103BA00081919191A191B191BF01FA01819391937A
:103BB000A193B193AF01F90181919191A191B1913B
:103BC0009F01F50181939193A193B1935F01D394E8
:103BD000F4E0DF12D8CF0E94445A80E090E8ABE3D3
:103BE000B5E480931D0F90931E0FA0931F0FB09309
:103BF000200F8093190F90931A0FA0931B0FB0936F
:103C00001C0F8093150F9093160FA093170FB0936E
:103C1000180F1092210F1092220F1092230F109262
:103C2000240F80E29EE4A0E0B0E08093550F9093D3
:103C3000560FA093570FB093580F1092050F109284
:103C4000060F1092070F1092080F80E090E0A0EA94
:103C5000B1E48093110F9093120FA093130FB093C0
:103C6000140F8DEC9CECACECBEE380930D0F9093A5
:103C70000E0FA0930F0FB093100F80E090E0A0EA1A
:103C8000B0E48093090F90930A0FA0930B0FB093A9
:103C90000C0F109215051092160510921705109230
:103CA000180510921105109212051092130510922A
:103CB000140510920D0510920E0510920F0510922A
:103CC000100588EC90E09093B8138093B71386E4C6
:103CD00090E09093B6138093B5131092B4131092A2
:103CE000B31385EF90E09093B2138093B1138AE5FC
:103CF00090E09093B0138093AF131092AE13109294
:103D0000AD138AE999E9A1EBB1E48093570290934E
:103D10005802A0935902B0935A0261E77DE38AE802
:103D20009FE30E94B2816093530270935402809388
:103D300055029093560260E070E084EE92E40E9497
:103D4000BE8160934F027093500280935102909312
:103D5000520280E090E0A8ECB2E480934B02909392
:103D60004C02A0934D02B0934E0284E190E09093F8
:103D70000C0280930B020E9489751092250580E049
:103D800090E0A0EEBFE38093230290932402A093DF
:103D90002502B09326020E949642E2E0FDE0849163
:103DA000882341F09091C00095FFFCCF8093C6001E
:103DB0003196F5CFE2ECF5E08491882341F09091C3
:103DC000C00095FFFCCF8093C6003196F5CF80915F
:103DD000C00085FFFCCF8AE08093C600E0960FB656
:103DE000F894DEBF0FBECDBFDF91CF911F910F9131
:103DF000FF90EF90DF90BF90AF900895CF93C82FC2
:103E0000882369F14091350F5091360F6091370F3B
:103E10007091380F8AEA95E02DD44091390F509176
:103E20003A0F60913B0F70913C0F87EA95E022D4E6
:103E300040913D0F50913E0F60913F0F7091400FA8
:103E400084EA95E017D44091410F5091420F609160
:103E5000430F7091440F81EA95E00CD42FC0E2E04B
:103E6000FDE08491882341F09091C00095FFFCCF44
:103E70008093C6003196F5CFE2EBF5E0849188237C
:103E800041F09091C00095FFFCCF8093C600319621
:103E9000F5CF8091C00085FFFCCF8AE08093C600FB
:103EA000E2E0FDE08491882309F4ACCF9091C0005A
:103EB00095FFFCCF8093C6003196F4CF8091C0006F
:103EC00085FFFCCF8AE08093C600CC2369F1409146
:103ED000450F5091460F6091470F7091480F8EE744
:103EE00095E0C8D34091490F50914A0F60914B0F14
:103EF00070914C0F8BE795E0BDD340914D0F5091E1
:103F00004E0F60914F0F7091500F88E795E0B2D33C
:103F10004091510F5091520F6091530F7091540F77
:103F200085E795E0A7D32FC0E2E0FDE084918823E8
:103F300041F09091C00095FFFCCF8093C600319670
:103F4000F5CFE7E8F5E08491882341F09091C00037
:103F500095FFFCCF8093C6003196F5CF8091C000CD
:103F600085FFFCCF8AE08093C600E2E0FDE084910B
:103F7000882309F4ACCF9091C00095FFFCCF8093CB
:103F8000C6003196F4CF8091C00085FFFCCF8AE057
:103F90008093C600CC2369F14091250F5091260FE4
:103FA0006091270F7091280F8EE495E075D34091B2
:103FB000290F50912A0F60912B0F70912C0F8BE4D9
:103FC00095E06AD340912D0F50912E0F60912F0FE5
:103FD0007091300F88E495E05FD34091310F50919C
:103FE000320F6091330F7091340F85E495E054D314
:103FF0002FC0E2E0FDE08491882341F09091C00061
:1040000095FFFCCF8093C6003196F5CFE7E5F5E04C
:104010008491882341F09091C00095FFFCCF80935C
:10402000C6003196F5CF8091C00085FFFCCF8AE0B5
:104030008093C600E2E0FDE08491882309F4ACCFD0
:104040009091C00095FFFCCF8093C6003196F4CFCD
:104050008091C00085FFFCCF8AE08093C600CC230E
:1040600011F140911D0F50911E0F60911F0F709123
:10407000200F8AE095E0FED24091190F50911A0F5F
:1040800060911B0F70911C0F87E095E0F3D2409177
:10409000150F5091160F6091170F7091180F84E053
:1040A00095E0E8D22FC0E2E0FDE08491882341F062
:1040B0009091C00095FFFCCF8093C6003196F5CF5C
:1040C000E3E1F5E08491882341F09091C00095FFF1
:1040D000FCCF8093C6003196F5CF8091C00085FF5C
:1040E000FCCF8AE08093C600E2E0FDE08491882363
:1040F00009F4B7CF9091C00095FFFCCF8093C60024
:104100003196F4CF8091C00085FFFCCF8AE0809388
:10411000C600CC2309F443C04091210F5091220FD7
:104120006091230F7091240F88E494E0A3D2409112
:10413000050F5091060F6091070F7091080F85E4ED
:1041400094E098D24091550F5091560F6091570FBF
:104150007091580F82E494E09FD24091110F5091DA
:10416000120F6091130F7091140F8FE394E082D2BD
:1041700040910D0F50910E0F60910F0F7091100F25
:104180008CE394E077D24091090F50910A0F60912F
:104190000B0F70910C0F89E394E06CD22FC0E2E01A
:1041A000FDE08491882341F09091C00095FFFCCF01
:1041B0008093C6003196F5CFE1E5F4E08491882341
:1041C00041F09091C00095FFFCCF8093C6003196DE
:1041D000F5CF8091C00085FFFCCF8AE08093C600B8
:1041E000E2E0FDE08491882309F496CF9091C0002D
:1041F00095FFFCCF8093C6003196F4CF8091C0002C
:1042000085FFFCCF8AE08093C600CC2311F140915A
:104210000D0550910E0560910F05709110058EE10E
:1042200094E028D240911105509112056091130538
:10423000709114058BE194E01DD2409115055091C9
:104240001605609117057091180588E194E012D267
:104250002FC0E2E0FDE08491882341F09091C000FE
:1042600095FFFCCF8093C6003196F5CFE7E2F4E0EE
:104270008491882341F09091C00095FFFCCF8093FA
:10428000C6003196F5CF8091C00085FFFCCF8AE053
:104290008093C600E2E0FDE08491882309F4B7CF63
:1042A0009091C00095FFFCCF8093C6003196F4CF6B
:1042B0008091C00085FFFCCF8AE08093C600CC23AC
:1042C000B1F06091B7137091B81380EF93E0C0D153
:1042D0006091B5137091B6138DEE93E0B9D16091F2
:1042E000B3137091B4138AEE93E0B2D12FC0E2E021
:1042F000FDE08491882341F09091C00095FFFCCFB0
:104300008093C6003196F5CFECEFF3E084918823DB
:1043100041F09091C00095FFFCCF8093C60031968C
:10432000F5CF8091C00085FFFCCF8AE08093C60066
:10433000E2E0FDE08491882309F4C3CF9091C000AE
:1043400095FFFCCF8093C6003196F4CF8091C000DA
:1043500085FFFCCF8AE08093C600CC23B1F060914A
:10436000B1137091B2138EED93E072D16091AF13DF
:104370007091B0138BED93E06BD16091AD137091A0
:10438000AE1388ED93E064D10DC0E2E0FDE08491CE
:10439000882329F39091C00095FFFCCF8093C6003D
:1043A0003196F5CF8091C00085FFFCCF8AE08093E5
:1043B000C600CC2309F43CC04091570250915802EA
:1043C0006091590270915A0281EC93E053D160914F
:1043D00053027091540280915502909156020E94AE
:1043E000B881AB01BC018EEB93E044D160914F02E8
:1043F0007091500280915102909152020E94C481AA
:10440000AB01BC018BEB93E035D140914B02509155
:104410004C0260914D0270914E0288EB93E02AD1DC
:1044200060910B0270910C0285EB93E011D12FC0CB
:10443000E2E0FDE08491882341F09091C00095FF77
:10444000FCCF8093C6003196F5CFEAECF3E084917F
:10445000882341F09091C00095FFFCCF8093C60067
:104460003196F5CF8091C00085FFFCCF8AE0809324
:10447000C600E2E0FDE08491882309F49DCF90918D
:10448000C00095FFFCCF8093C6003196F4CF809199
:10449000C00085FFFCCF8AE08093C600CC2361F08A
:1044A00040912302509124026091250270912602CE
:1044B0008FE893E0DFD045C0E2E0FDE084918823FF
:1044C00041F09091C00095FFFCCF8093C6003196DB
:1044D000F5CFE2EAF3E08491882341F09091C000A7
:1044E00095FFFCCF8093C6003196F5CF80912505CE
:1044F000811103C0E8E9F3E00CC08091C00085FFA2
:10450000FCCF0EC09091C00095FFFCCF8093C600F9
:10451000319684918111F6CF8091C00085FFFCCF48
:104520008AE08093C600E2E0FDE08491882309F4EC
:10453000B7CF9091C00095FFFCCF8093C600319615
:10454000F4CF8091C00085FFFCCF8AE08093C60045
:1045500080912505811123C0C1110DC0E2E0FDE06D
:1045600007C09091C00095FFFCCF8093C6003196A4
:1045700084918111F6CFE5E8F3E007C09091C00087
:1045800095FFFCCF8093C600319684918111F6CFC0
:104590008091C00085FFFCCF8AE08093C600CF9158
:1045A0000895FC0165917591859194910895CF923C
:1045B000DF92EF92FF920F931F93CF93DF93EC0163
:1045C000CC0FDD1FCC0FDD1FFE01E35FFA4FDE01D4
:1045D000A75EBA4F2D913D914D915C9160817181A3
:1045E000828193810E9418B46B017C01CE018A50B4
:1045F000934FD7DF8E010F5F1A4FA70196010E94DC
:1046000018B4F8016083718382839383CE0186514D
:10461000934FC7DFCD5EDD4FA70196010E9418B40E
:10462000688379838A839B83DF91CF911F910F9158
:10463000FF90EF90DF90CF9008950E9443B1609378
:10464000F2047093F3048093F4049093F5040895B6
:10465000FC012491222341F03091C00035FFFCCFB2
:104660002093C6000196F4CF4AE050E086E799E037
:104670000C944A49FC012491222341F03091C0005E
:1046800035FFFCCF2093C6000196F4CF22E030E046
:1046900086E799E00C941C4AFC012491222341F006
:1046A0003091C00035FFFCCF2093C6000196F4CFB7
:1046B0002AE030E086E799E00C9476492091AE0636
:1046C0003091AF06F901E352FB4F8083C901019697
:1046D00064E070E00E94BBB89093AF068093AE0692
:1046E0008091AC069091AD0601969093AD068093B3
:1046F000AC060895CF93FC01C62F80818B33D9F08F
:104700002091AC063091AD0624303105A4F44091DF
:10471000AE065091AF0680E6849F9001859F300DD4
:104720001124BF01C901845D9A4F0E946DBC8C2F7A
:10473000C5DF81E001C080E0CF910895CF93DF9382
:10474000D82FC92FD7DF882309F43CC0E2E0FDE071
:104750008491882341F09091C00095FFFCCF809315
:10476000C6003196F5CFE6EBFCE08491882341F05A
:104770009091C00095FFFCCF8093C6003196F5CF95
:10478000ED2FFC2F8191882339F09091C00095FF87
:10479000FCCF8093C600F6CFE4EBFCE08491882345
:1047A00041F09091C00095FFFCCF8093C6003196F8
:1047B000F5CF8091C00085FFFCCF8AE08093C600D2
:1047C00081E001C080E0DF91CF910895DF92EF9208
:1047D000FF920F931F93CF93DF93CDB7DEB76E9702
:1047E0000FB6F894DEBF0FBECDBF6091F604709196
:1047F000F7046115710559F14DE150E08E010F5F2D
:104800001F4FC8010E94FCBB1E8EF8017F01E01AF9
:10481000F10AD190DD2019F08AE0D812F7CFF80123
:10482000EE0DFF1D108260E0C80188DF882379F05B
:10483000DD20B1F08FEFE81AF80A8091F60490912C
:10484000F7048E0D9F1D9093F7048093F60481E08A
:104850002091F6043091F704232B39F480E005C051
:104860001092F7041092F604F2CF6E960FB6F894F9
:10487000DEBF0FBECDBFDF91CF911F910F91FF9093
:10488000EF90DF9008959093F7048093F6049ECF05
:104890009898A09A0895269A2E980895F9DFFBDF3C
:1048A00040E052EC61E070E086E799E00E943C480D
:1048B000EEEAFCE08491882341F09091C00095FFDE
:1048C000FCCF8093C6003196F5CF8091C00085FF64
:1048D000FCCF8AE08093C600E2E0FDE0849188236B
:1048E00041F09091C00095FFFCCF8093C6003196B7
:1048F000F5CF84B780FF14C0E6EAFCE094919923D9
:1049000041F02091C00025FFFCCF9093C600319666
:10491000F5CF9091C00095FFFCCF9AE09093C60030
:1049200081FF14C0E6E9FCE09491992341F02091C5
:10493000C00025FFFCCF9093C6003196F5CF909133
:10494000C00095FFFCCF9AE09093C60082FF14C090
:10495000E5E8FCE09491992341F02091C00025FF07
:10496000FCCF9093C6003196F5CF9091C00095FF93
:10497000FCCF9AE09093C60083FF14C0E5E7FCE00B
:104980009491992341F02091C00025FFFCCF909392
:10499000C6003196F5CF9091C00095FFFCCF9AE00C
:1049A0009093C60085FF14C0E5E6FCE0849188235F
:1049B00041F09091C00095FFFCCF8093C6003196E6
:1049C000F5CF8091C00085FFFCCF8AE08093C600C0
:1049D00014BEEEE5FCE08491882341F09091C00084
:1049E00095FFFCCF8093C6003196F5CFE3E5FCE060
:1049F0008491882341F09091C00095FFFCCF809373
:104A0000C6003196F5CF8091C00085FFFCCF8AE0CB
:104A10008093C600E2E0FDE08491882341F090910C
:104A2000C00095FFFCCF8093C6003196F5CFE3E43C
:104A3000FCE08491882341F09091C00095FFFCCF69
:104A40008093C6003196F5CFE2E3FCE084918823A1
:104A500041F09091C00095FFFCCF8093C600319645
:104A6000F5CFE6E2FCE08491882341F09091C0000C
:104A700095FFFCCF8093C6003196F5CFEDEFFBE0BC
:104A80008491882341F09091C00095FFFCCF8093E2
:104A9000C6003196F5CF8091C00085FFFCCF8AE03B
:104AA0008093C600E2EFFBE08491882341F090916F
:104AB000C00095FFFCCF8093C6003196F5CFE6EE9F
:104AC000FBE08491882341F09091C00095FFFCCFDA
:104AD0008093C6003196F5CF8091C00085FFFCCF52
:104AE0008AE08093C600E2E0FDE08491882341F0F3
:104AF0009091C00095FFFCCF8093C6003196F5CF12
:104B0000E7EDFBE08491882341F09091C00095FF90
:104B1000FCCF8093C6003196F5CF0E9482654AE0B3
:104B200050E0BC0186E799E00E944A49E0ECFBE0D6
:104B30008491882341F09091C00095FFFCCF809331
:104B4000C6003196F5CF4AE050E060ED74E086E7AC
:104B500099E00E944A498091C00085FFFCCF8AE01D
:104B60008093C60081E08093DD048093DE0480930F
:104B7000DF048093E0040E94841D80E03FD90E94FE
:104B8000088E0E9404780E94D24D0C9482722F925B
:104B90003F924F925F926F927F928F929F92AF92CD
:104BA000BF92CF92DF92EF92FF920F931F93CF931A
:104BB000DF93CDB7DEB7A0970FB6F894DEBF0FBE78
:104BC000CDBF8091EB06882309F42FC18091AC06FC
:104BD0009091AD06892B11F41092750421E028A361
:104BE00040916709509168096091690970916A095B
:104BF0008091630990916409A0916509B09166095B
:104C0000481759076A077B0708F418A200E010E06C
:104C10009CE3C92ED12CE12CF12C20E1222E2EE098
:104C2000322E412C512CCE0101963C018091AC06D4
:104C30009091AD0604970CF0F8C028A12111F5C0A1
:104C4000809175048111F1C08091BE089091BF08D8
:104C5000A091C008B091C10880936709909368093A
:104C6000A0936909B0936A0986EB98E00E94505FAF
:104C70008F8FA1E0A8A38090670990906809A09009
:104C80006909B0906A094091630950916409609183
:104C900065097091660984169506A606B70630F474
:104CA00018A28F3FBFEF9B0721F47FC0E3E6FAE035
:104CB00018C02F8D2A3009F47EC02D3009F47BC036
:104CC000233219F02A3309F090C020917404211185
:104CD0008CC06BC09091C00095FFFCCF8093C60044
:104CE000319684918111F6CF8091C00085FFFCCF71
:104CF0004AE04093C60082EE94E00E94B57382EED3
:104D000094E00E94DB734C01A12CB12CC501B401CD
:104D1000A70196010E94CEB8CA01B901A701960168
:104D20000E94CEB87F936F93C501B401A201910197
:104D30000E94CEB83F932F93AFE4BAE0BF93AF93F6
:104D40007F926F920E9491BC0FB6F894DEBF0FBEA7
:104D5000CDBFE2E0FDE08491882341F09091C00056
:104D600095FFFCCF8093C6003196F5CFF30181917A
:104D7000882339F09091C00095FFFCCF8093C60046
:104D8000F6CF8091C00085FFFCCF9AE09093C600DB
:104D900061E0C3010E94988689EE96E00E94011DA1
:104DA00061E089EE96E00E948917AF8DA33219F475
:104DB000B1E0B0937504109274040115110509F463
:104DC00035CF8091AE069091AF0620E6289FF00186
:104DD000299FF00D1124E00FF11FE45DFA4F1082BE
:104DE00080E06CDC00E010E021CF0F35110508F009
:104DF0001DCF4F8D4B3319F4A1E0A0937404209183
:104E00007404211113CF2091AE063091AF06B0E6A5
:104E1000B29FF001B39FF00D1124E00FF11FE45D8C
:104E2000FA4F80830F5F1F4F01CFA0960FB6F89403
:104E3000DEBF0FBECDBFDF91CF911F910F91FF90CD
:104E4000EF90DF90CF90BF90AF909F908F907F902A
:104E50006F905F904F903F902F9008950F931F9306
:104E6000CF93DF930091F8041091F90465E470E0AA
:104E7000C8010E9459BCEC01C8010196209761F05D
:104E8000188260E070E00E943BB925E42883DF913E
:104E9000CF911F910F91089560E070E0DF91CF9165
:104EA0001F910F910C943BB98091F8049091F904F3
:104EB0004AE050E060E070E001960C94A3BA809163
:104EC000F8049091F9044AE050E060E070E0019647
:104ED0000E94A3BACB010895682F772767FD7095CC
:104EE0008091B2069091B3060E9459BC9093F90448
:104EF0008093F80421E0892B09F420E0822F0895A3
:104F00000F931F93CF93DF938C0184E5E5DF882314
:104F100069F1D5DFEC011816190654F5E2E0FDE061
:104F20008491882341F09091C00095FFFCCF80933D
:104F3000C6003196F5CF8091C00085FFFCCF8DE48F
:104F40008093C6004AE050E0B80186E799E00E94ED
:104F50004A49BE018CE39AE07BDB8091C00085FF6B
:104F6000FCCF8AE08093C60081E005C08091FE04FA
:104F70008093E10480E0DF91CF911F910F9108951C
:104F80000F931F93CF93DF9300D000D0CDB7DEB740
:104F900026E0EEECF2E0DE01119601900D922A95EA
:104FA000E1F7FC01EE0FFF1F21E030E02C0F3D1F69
:104FB000E20FF31F60817181161617061CF1E2E003
:104FC000FDE02491222341F03091C00035FFFCCF59
:104FD0002093C6003196F5CFE7EAF9E02491222329
:104FE00041F03091C00035FFFCCF2093C6003196D0
:104FF000F5CF2091C00025FFFCCF2AE02093C6000A
:105000006AE070E08C01000F111F000F111F0551A5
:105010001C4F882777FD8095982F0E9493B59B01A0
:10502000AC01F80160817181828193810E94F8B4A2
:1050300060932B0270932C0280932D0290932E028A
:1050400026960FB6F894DEBF0FBECDBFDF91CF918D
:105050001F910F910895CF92EF92FF920F931F939C
:1050600020E030E040E752E40E94F8B4C090FE0433
:105070007B018C0120ED36E04CEC56E068EC76E0EC
:1050800084EC96E00E94484F1F910F91FF90EF90A3
:10509000CF90089560912B0270912C0280912D0287
:1050A00090912E02D8CF20EE36E04CED56E068ED20
:1050B00076E084ED96E00C945C594F925F926F928B
:1050C0007F928F929F92AF92BF92CF92DF92EF9298
:1050D000FF920F931F93CF93DF938C01FC01ED534D
:1050E000F34FF490EC01CC0FDD1FCC0FDD1FCE0190
:1050F0008C52994F5C01FC01108211821282138242
:10510000D2DFCE018E52934F4CDA2B013C016F2D32
:10511000772767FD7095872F972F0E9493B56B01B6
:105120007C01CE018C53994F4C0120E030E040ECE3
:105130005FE3C301B2010E94C6B7A70196010E94B6
:10514000C6B7F4016083718382839383FE01E551C6
:10515000FC4F80819181A281B38180932B02909337
:105160002C02A0932D02B0932E0294DF0E9416739E
:10517000F501108211821282138295DF80E00E9475
:105180003B6ACE018A53934F3C010BDA9058A7013A
:1051900096010E94C6B7F401608371838283938372
:1051A00079DF0E94167381E00E943B6AC801E8DE45
:1051B000C301F7D99B01AC010E9418B4A701960165
:1051C0000E94C6B7F401608371838283938362DF98
:1051D0000E941673FE01E75EFA4F1082118212825E
:1051E0001382CE018252934FDCD9C35FDA4F2881FC
:1051F00039814A815B810E9418B4F5016083718313
:1052000082839383C801D3D94EDFF50180819181D8
:10521000A281B381F40180839183A283B38310922E
:105220002B0210922C0210922D0210922E020E943C
:10523000436AF801EF53F94F81E08083F801E254AB
:10524000F94F8083DF91CF911F910F91FF90EF90E5
:10525000DF90CF90BF90AF909F908F907F906F9096
:105260005F904F90089580E1E4ECF6E0A4EDB6E0A5
:1052700001900D928A95E1F70895CF92DF92EF9217
:10528000FF920F931F93CF93DF9367EEE62E63E0B9
:10529000F62E04EC16E0C4EDD6E078E2C72E75E0F9
:1052A000D72EF70181917F0117DE8823C9F0D6DD63
:1052B000F6012081211104C02091FD04222329F050
:1052C000288139814A815B8103C020E030E0A90157
:1052D0000E9418B4F801608371838283938309C0AC
:1052E00088819981AA81BB81F80180839183A283FF
:1052F000B3830C5F1F4F2496FFEFCF1ADF0A8BEEAC
:10530000E81683E0F80669F686E4E6DD882391F086
:10531000A5DD6B017C0120E030E0A9010E94F4B61C
:10532000181644F4C0922B02D0922C02E0922D0267
:10533000F0922E02DF91CF911F910F91FF90EF908D
:10534000DF90CF900895E2E0FDE08491882341F062
:105350009091C00095FFFCCF8093C6003196F5CFA9
:10536000E9E2FAE08491882341F09091C00095FF32
:10537000FCCF8093C6003196F5CFE091B406F09152
:10538000B5068191882339F09091C00095FFFCCF3C
:105390008093C600F6CFE6E2FAE08491882341F0DC
:1053A0009091C00095FFFCCF8093C6003196F5CF59
:1053B0000895CF92DF92EF92FF920E9443B16B016A
:1053C0007C0180910A02882309F483C02091DB04C8
:1053D0003091DC042115310509F47BC08091D7049C
:1053E0009091D804A091D904B091DA04B701A60134
:1053F000481B590B6A0B7B0B77FD7EC023303105B0
:1054000079F03CF4213031050CF463C0E2E0FDE0BA
:1054100011C02430310509F05CC0E2E0FDE042C07B
:10542000E2E0FDE023C09091C00095FFFCCF8093A7
:10543000C600319684918111F6CFE5E1FAE08491BE
:10544000882341F09091C00095FFFCCF8093C60067
:105450003196F5CF8091C00085FFFCCF37C0909189
:10546000C00095FFFCCF8093C600319684918111D6
:10547000F6CFEFEFF9E08491882341F09091C000DE
:1054800095FFFCCF8093C6003196F5CF8091C00088
:1054900085FFFCCF1BC09091C00095FFFCCF80938F
:1054A000C600319684918111F6CFE8EEF9E084913F
:1054B000882341F09091C00095FFFCCF8093C600F7
:1054C0003196F5CF8091C00085FFFCCF8AE08093B4
:1054D000C60020910A0230E0A8EEB3E00E9412B9A3
:1054E0006C0D7D1D8E1D9F1D6093D7047093D80495
:1054F0008093D9049093DA04FF90EF90DF90CF90DF
:1055000008958F929F92AF92BF92CF92DF92EF92C7
:10551000FF920F931F93CF93DF9300D01F92CDB7CD
:10552000DEB785E4D9DCB82E811102C00E94167363
:10553000E7EECE2EE3E0DE2EF9E1EF2EF5E0FF2ED2
:1055400004ED16E0812C912CA12CF60181916F01C4
:10555000C3DC882359F1F8012081318142815381D4
:1055600029833A834B835C8379DCF8016083718300
:105570008283938329813A814B815C81F3E08F168A
:105580009104A1F00E9417B49B01AC01F701608166
:105590007181828193810E9418B4F70160837183C5
:1055A00082839383C40103D8AA24A394FFEF8F1AA4
:1055B0009F0A84E0E80EF11C0C5F1F4FE4E08E169A
:1055C000910409F0C2CFAA2089F00F900F900F909C
:1055D0000F90DF91CF911F910F91FF90EF90DF908F
:1055E000CF90BF90AF909F908F905DCDBB20A1F0EA
:1055F00080EE96E00F900F900F900F90DF91CF917B
:105600001F910F91FF90EF90DF90CF90BF90AF90E0
:105610009F908F900C94275A0F900F900F900F909F
:10562000DF91CF911F910F91FF90EF90DF90CF907E
:10563000BF90AF909F908F900895E5E5F9E0849139
:10564000882341F09091C00095FFFCCF8093C60065
:105650003196F5CF8091C00085FFFCCF8AE0809322
:10566000C60089EE96E00E94CD13E7E4F9E084914C
:10567000882341F09091C00095FFFCCF8093C60035
:105680003196F5CF8091C00085FFFCCF8AE08093F2
:10569000C6000895EF92FF920F931F93CF93DF936D
:1056A000CDB7DEB76E970FB6F894DEBF0FBECDBF95
:1056B00082EE94E00E94DB73BC0180E090E02CE37A
:1056C00030E040E050E00E94CEB87F936F933F936C
:1056D0002F9388E399E09F938F938E010F5F1F4F65
:1056E0001F930F930E9491BC0FB6F894DEBF0FBEBC
:1056F000CDBFE2E0FDE08491882341F09091C000AD
:1057000095FFFCCF8093C6003196F5CFF8018191CB
:10571000882339F09091C00095FFFCCF8093C6009C
:10572000F6CF8091C00085FFFCCF8AE08093C60051
:1057300060E0C8010E9498868091F40E882329F1C8
:105740001092F40EE090FE04F12C8701000F111F5F
:10575000005F1C4EF80160817181882777FD80957C
:10576000982F0E9493B520913402309135024091D8
:105770003602509137020E94F4B6181634F4F8013C
:1057800011821082C7010E94B9786E960FB6F89404
:10579000DEBF0FBECDBFDF91CF911F910F91FF9064
:1057A000EF9008951F93CF93DF938091EB068111C3
:1057B0000E941673C091B206D091B30661E270E008
:1057C000CE010E9459BC009711F0EC01219680E5B2
:1057D00083DB882341F011E08091F8049091F90473
:1057E0008C179D0708F010E08091EC06882391F15A
:1057F000212F41E0BE0189EE96E00E94C61883E5A4
:105800006BDB882339F08091F8049091F9048C17B0
:105810009D0768F089EE96E00E943F1511111AC0AD
:1058200082EE94E0DF91CF911F910C94027447DBDC
:10583000AC01662757FD6095762F4093670950931A
:1058400068096093690970936A0986EB98E00E9481
:105850001D60E0CFDF91CF911F9108950F931F93AB
:10586000CF93DF9383E538DB882371F128DB8C014C
:105870008F3F910509F040F580E52EDB882329F064
:105880001EDBEC0197FD20C002C0CDE0D0E0E1EBD3
:10589000F3E081919191C817D907B1F083E0E73E19
:1058A000F807B9F761E08C2F0E942CB3602F8C2F82
:1058B0000E9465B3B8018C2F0E9416B2299721F47B
:1058C000109300050093FF04DF91CF911F910F917A
:1058D0000895CF92DF92EF92FF920F931F93CF9391
:1058E000DF9388E690E00CDB811152C08091E806DE
:1058F00083FD4EC083E5F0DA882309F449C0AEDAAF
:105900006B017C010091E10410E0E801CC0FDD1F88
:10591000C05FDC4E0E9460B579836883C8010E9435
:10592000B97820E030E04AEA52E4C701B6010E94AB
:10593000F1B4181654F082EE94E00E94B57360E062
:1059400084E299E00E94EA8604C082EE94E00E941C
:105950000274E091E10484E0E89FF0011124EA5030
:10596000FD4E2081318142815381C701B6010E94E1
:10597000F4B618166CF460E089E199E0DF91CF91FC
:105980001F910F91FF90EF90DF90CF900C94EA86DB
:10599000DF91CF911F910F91FF90EF90DF90CF900B
:1059A0000895E4EEF9E08491882341F09091C000DD
:1059B00095FFFCCF8093C6003196F5CFE091E104CE
:1059C00084E0E89FF0011124EA50FD4E40815181AE
:1059D0006281738121E030E086E799E00E941C4AF1
:1059E000E1EEF9E08491882341F09091C00095FFA9
:1059F000FCCF8093C6003196F5CFE091E104F0E052
:105A0000EE0FFF1FE05FFC4E60817181882777FDFC
:105A10008095982F0E9493B5AB01BC0121E030E046
:105A200086E799E00E941C4AEDEDF9E08491882315
:105A300041F09091C00095FFFCCF8093C600319655
:105A4000F5CF4091F0125091F1126091F2127091E5
:105A5000F31221E030E086E799E00E941C4AEAED6B
:105A6000F9E08491882341F09091C00095FFFCCF2C
:105A70008093C6003196F5CF60910E1370910F138D
:105A8000882777FD8095982F0E9493B5AB01BC01C4
:105A900021E030E086E799E00E941C4AE5EDF9E05C
:105AA0008491882341F09091C00095FFFCCF8093B2
:105AB000C6003196F5CF8FEF9FEF0E94A8754AE0A0
:105AC00050E0BC0186E799E00E944A49E1EDF9E027
:105AD0008491882341F09091C00095FFFCCF809382
